{
  "_format": "hh-sol-artifact-1",
  "contractName": "VRF",
  "sourceName": "src/contracts/VRF.sol",
  "abi": [
    {
      "inputs": [],
      "stateMutability": "nonpayable",
      "type": "constructor"
    },
    {
      "inputs": [
        {
          "internalType": "uint256",
          "name": "_requestId",
          "type": "uint256"
        }
      ],
      "name": "getRequestStatus",
      "outputs": [
        {
          "internalType": "bool",
          "name": "fulfilled",
          "type": "bool"
        },
        {
          "internalType": "uint256",
          "name": "randomWords",
          "type": "uint256"
        }
      ],
      "stateMutability": "view",
      "type": "function"
    },
    {
      "inputs": [],
      "name": "lastRequestId",
      "outputs": [
        {
          "internalType": "uint256",
          "name": "",
          "type": "uint256"
        }
      ],
      "stateMutability": "view",
      "type": "function"
    },
    {
      "inputs": [
        {
          "internalType": "uint256",
          "name": "",
          "type": "uint256"
        }
      ],
      "name": "requestIds",
      "outputs": [
        {
          "internalType": "uint256",
          "name": "",
          "type": "uint256"
        }
      ],
      "stateMutability": "view",
      "type": "function"
    },
    {
      "inputs": [
        {
          "internalType": "uint256",
          "name": "_randomWords",
          "type": "uint256"
        },
        {
          "internalType": "bytes",
          "name": "_signature",
          "type": "bytes"
        },
        {
          "internalType": "address",
          "name": "signer",
          "type": "address"
        },
        {
          "internalType": "uint256",
          "name": "_requestId",
          "type": "uint256"
        }
      ],
      "name": "setRandomWords",
      "outputs": [
        {
          "internalType": "uint256",
          "name": "requestId",
          "type": "uint256"
        }
      ],
      "stateMutability": "nonpayable",
      "type": "function"
    },
    {
      "inputs": [
        {
          "internalType": "uint256",
          "name": "_requestId",
          "type": "uint256"
        },
        {
          "internalType": "uint256",
          "name": "_randomWords",
          "type": "uint256"
        },
        {
          "internalType": "address",
          "name": "_signer",
          "type": "address"
        }
      ],
      "name": "verify",
      "outputs": [
        {
          "internalType": "bool",
          "name": "",
          "type": "bool"
        }
      ],
      "stateMutability": "view",
      "type": "function"
    }
  ],
  "bytecode": "0x608060405234801561001057600080fd5b50600080546001600160a01b03191633179055610a32806100326000396000f3fe608060405234801561001057600080fd5b50600436106100575760003560e01c8063731d9c881461005c5780638796ba8c14610084578063893d880e146100a5578063d8a4676f146100b8578063fc2a88c3146100e2575b600080fd5b61006f61006a36600461077a565b6100eb565b60405190151581526020015b60405180910390f35b6100976100923660046107af565b6102dd565b60405190815260200161007b565b6100976100b33660046107de565b6102fe565b6100cb6100c63660046107af565b6104a2565b60408051921515835260208301919091520161007b565b61009760035481565b600083815260016020526040812054610100900460ff166101475760405162461bcd60e51b81526020600482015260116024820152701c995c5d595cdd081b9bdd08199bdd5b99607a1b60448201526064015b60405180910390fd5b6000848152600160208181526040808420815160a081018352815460ff80821615158352610100820416151594820194909452620100009093046001600160a01b03169183019190915291820180549192916060840191906101a8906108b1565b80601f01602080910402602001604051908101604052809291908181526020018280546101d4906108b1565b80156102215780601f106101f657610100808354040283529160200191610221565b820191906000526020600020905b81548152906001019060200180831161020457829003601f168201915b5050505050815260200160028201548152505090506000610241856105fe565b9050600061024e82610630565b9050846001600160a01b031661026882856060015161066b565b6001600160a01b03161461028257600093505050506102d6565b826080015160405160200161029991815260200190565b60408051601f1981840301815282825280516020918201209083018990529101604051602081830303815290604052805190602001201493505050505b9392505050565b600281815481106102ed57600080fd5b600091825260209091200154905081565b600080546001600160a01b031633146103455760405162461bcd60e51b81526020600482015260096024820152682737ba1037bbb732b960b91b604482015260640161013e565b6000610350866105fe565b9050600061035d82610630565b9050846001600160a01b0316610373828861066b565b6001600160a01b0316146103bb5760405162461bcd60e51b815260206004820152600f60248201526e0a6d2cedccae440dad2e6dac2e8c6d608b1b604482015260640161013e565b6040805160a081018252600180825260208083018281526001600160a01b038a8116858701908152606086018d8152608087018f905260008c81529486905296909320855181549351945161ffff1990941690151561ff00191617610100941515949094029390931762010000600160b01b031916620100009290911691909102178155925191929190820190610452908261093c565b506080919091015160029182015580546001810182556000919091527f405787fa12a823e0f2b7631cc41b3ba8828b3321ca811111fa75cd3aa3bb5ace0184905550505060038190559392505050565b6000818152600160205260408120548190610100900460ff166104fb5760405162461bcd60e51b81526020600482015260116024820152701c995c5d595cdd081b9bdd08199bdd5b99607a1b604482015260640161013e565b6000838152600160208181526040808420815160a081018352815460ff80821615158352610100820416151594820194909452620100009093046001600160a01b031691830191909152918201805491929160608401919061055c906108b1565b80601f0160208091040260200160405190810160405280929190818152602001828054610588906108b1565b80156105d55780601f106105aa576101008083540402835291602001916105d5565b820191906000526020600020905b8154815290600101906020018083116105b857829003601f168201915b505050505081526020016002820154815250509050806000015181608001519250925050915091565b60008160405160200161061391815260200190565b604051602081830303815290604052805190602001209050919050565b6040517f19457468657265756d205369676e6564204d6573736167653a0a3332000000006020820152603c8101829052600090605c01610613565b60008060008061067a856106ea565b6040805160008152602081018083528b905260ff8316918101919091526060810184905260808101839052929550909350915060019060a0016020604051602081039080840390855afa1580156106d5573d6000803e3d6000fd5b5050604051601f190151979650505050505050565b600080600083516041146107405760405162461bcd60e51b815260206004820152601860248201527f696e76616c6964207369676e6174757265206c656e6774680000000000000000604482015260640161013e565b50505060208101516040820151606090920151909260009190911a90565b80356001600160a01b038116811461077557600080fd5b919050565b60008060006060848603121561078f57600080fd5b83359250602084013591506107a66040850161075e565b90509250925092565b6000602082840312156107c157600080fd5b5035919050565b634e487b7160e01b600052604160045260246000fd5b600080600080608085870312156107f457600080fd5b84359350602085013567ffffffffffffffff8082111561081357600080fd5b818701915087601f83011261082757600080fd5b813581811115610839576108396107c8565b604051601f8201601f19908116603f01168101908382118183101715610861576108616107c8565b816040528281528a602084870101111561087a57600080fd5b8260208601602083013760006020848301015280975050505050506108a16040860161075e565b9396929550929360600135925050565b600181811c908216806108c557607f821691505b6020821081036108e557634e487b7160e01b600052602260045260246000fd5b50919050565b601f821115610937576000816000526020600020601f850160051c810160208610156109145750805b601f850160051c820191505b8181101561093357828155600101610920565b5050505b505050565b815167ffffffffffffffff811115610956576109566107c8565b61096a8161096484546108b1565b846108eb565b602080601f83116001811461099f57600084156109875750858301515b600019600386901b1c1916600185901b178555610933565b600085815260208120601f198616915b828110156109ce578886015182559484019460019091019084016109af565b50858210156109ec5787850151600019600388901b60f8161c191681555b5050505050600190811b0190555056fea2646970667358221220124285bca8f3eebc73e766e8b06b50c3d1f5365d94ef3a0bf1b08c25c767ef6764736f6c63430008180033",
  "linkReferences": {},
  "deployedLinkReferences": {}
}