{
  "_format": "hh-sol-artifact-1",
  "contractName": "VRF",
  "sourceName": "src/contracts/VRF.sol",
  "abi": [
    {
      "inputs": [],
      "stateMutability": "nonpayable",
      "type": "constructor"
    },
    {
      "inputs": [
        {
          "internalType": "uint256",
          "name": "_randomWords",
          "type": "uint256"
        }
      ],
      "name": "getMessageHash",
      "outputs": [
        {
          "internalType": "bytes32",
          "name": "",
          "type": "bytes32"
        }
      ],
      "stateMutability": "pure",
      "type": "function"
    },
    {
      "inputs": [
        {
          "internalType": "uint256",
          "name": "_requestId",
          "type": "uint256"
        }
      ],
      "name": "getRequestStatus",
      "outputs": [
        {
          "internalType": "bool",
          "name": "fulfilled",
          "type": "bool"
        },
        {
          "internalType": "uint256",
          "name": "randomWords",
          "type": "uint256"
        }
      ],
      "stateMutability": "view",
      "type": "function"
    },
    {
      "inputs": [],
      "name": "lastRequestId",
      "outputs": [
        {
          "internalType": "uint256",
          "name": "",
          "type": "uint256"
        }
      ],
      "stateMutability": "view",
      "type": "function"
    },
    {
      "inputs": [
        {
          "internalType": "uint256",
          "name": "",
          "type": "uint256"
        }
      ],
      "name": "requestIds",
      "outputs": [
        {
          "internalType": "uint256",
          "name": "",
          "type": "uint256"
        }
      ],
      "stateMutability": "view",
      "type": "function"
    },
    {
      "inputs": [
        {
          "internalType": "uint256",
          "name": "",
          "type": "uint256"
        }
      ],
      "name": "s_requests",
      "outputs": [
        {
          "internalType": "bool",
          "name": "fulfilled",
          "type": "bool"
        },
        {
          "internalType": "bool",
          "name": "exists",
          "type": "bool"
        },
        {
          "internalType": "address",
          "name": "signer",
          "type": "address"
        },
        {
          "internalType": "bytes",
          "name": "signature",
          "type": "bytes"
        },
        {
          "internalType": "uint256",
          "name": "randomWords",
          "type": "uint256"
        }
      ],
      "stateMutability": "view",
      "type": "function"
    },
    {
      "inputs": [
        {
          "internalType": "uint256",
          "name": "_randomWords",
          "type": "uint256"
        },
        {
          "internalType": "bytes",
          "name": "_signature",
          "type": "bytes"
        },
        {
          "internalType": "address",
          "name": "signer",
          "type": "address"
        },
        {
          "internalType": "uint256",
          "name": "_requestId",
          "type": "uint256"
        }
      ],
      "name": "setRandomWords",
      "outputs": [
        {
          "internalType": "uint256",
          "name": "requestId",
          "type": "uint256"
        }
      ],
      "stateMutability": "nonpayable",
      "type": "function"
    },
    {
      "inputs": [
        {
          "internalType": "uint256",
          "name": "_requestId",
          "type": "uint256"
        },
        {
          "internalType": "uint256",
          "name": "_randomWords",
          "type": "uint256"
        },
        {
          "internalType": "address",
          "name": "_signer",
          "type": "address"
        }
      ],
      "name": "verify",
      "outputs": [
        {
          "internalType": "bool",
          "name": "",
          "type": "bool"
        }
      ],
      "stateMutability": "view",
      "type": "function"
    }
  ],
  "bytecode": "0x608060405234801561001057600080fd5b50600080546001600160a01b03191633179055610bd3806100326000396000f3fe608060405234801561001057600080fd5b506004361061007d5760003560e01c8063a168fa891161005b578063a168fa89146100de578063ba86a10d14610102578063d8a4676f14610115578063fc2a88c31461013f57600080fd5b8063731d9c88146100825780638796ba8c146100aa578063893d880e146100cb575b600080fd5b6100956100903660046108a3565b610148565b60405190151581526020015b60405180910390f35b6100bd6100b83660046108d8565b61033a565b6040519081526020016100a1565b6100bd6100d9366004610907565b61035b565b6100f16100ec3660046108d8565b6104ff565b6040516100a19594939291906109da565b6100bd6101103660046108d8565b6105cb565b6101286101233660046108d8565b6105fd565b6040805192151583526020830191909152016100a1565b6100bd60035481565b600083815260016020526040812054610100900460ff166101a45760405162461bcd60e51b81526020600482015260116024820152701c995c5d595cdd081b9bdd08199bdd5b99607a1b60448201526064015b60405180910390fd5b6000848152600160208181526040808420815160a081018352815460ff80821615158352610100820416151594820194909452620100009093046001600160a01b031691830191909152918201805491929160608401919061020590610a52565b80601f016020809104026020016040519081016040528092919081815260200182805461023190610a52565b801561027e5780601f106102535761010080835404028352916020019161027e565b820191906000526020600020905b81548152906001019060200180831161026157829003601f168201915b505050505081526020016002820154815250509050600061029e856105cb565b905060006102ab82610759565b9050846001600160a01b03166102c5828560600151610794565b6001600160a01b0316036102df5760009350505050610333565b82608001516040516020016102f691815260200190565b60408051601f1981840301815282825280516020918201209083018990529101604051602081830303815290604052805190602001201493505050505b9392505050565b6002818154811061034a57600080fd5b600091825260209091200154905081565b600080546001600160a01b031633146103a25760405162461bcd60e51b81526020600482015260096024820152682737ba1037bbb732b960b91b604482015260640161019b565b60006103ad866105cb565b905060006103ba82610759565b9050846001600160a01b03166103d08288610794565b6001600160a01b0316146104185760405162461bcd60e51b815260206004820152600f60248201526e0a6d2cedccae440dad2e6dac2e8c6d608b1b604482015260640161019b565b6040805160a081018252600180825260208083018281526001600160a01b038a8116858701908152606086018d8152608087018f905260008c81529486905296909320855181549351945161ffff1990941690151561ff00191617610100941515949094029390931762010000600160b01b0319166201000092909116919091021781559251919291908201906104af9082610add565b506080919091015160029182015580546001810182556000919091527f405787fa12a823e0f2b7631cc41b3ba8828b3321ca811111fa75cd3aa3bb5ace0183905550506003819055949350505050565b60016020819052600091825260409091208054918101805460ff80851694610100810490911693620100009091046001600160a01b031692909161054290610a52565b80601f016020809104026020016040519081016040528092919081815260200182805461056e90610a52565b80156105bb5780601f10610590576101008083540402835291602001916105bb565b820191906000526020600020905b81548152906001019060200180831161059e57829003601f168201915b5050505050908060020154905085565b6000816040516020016105e091815260200190565b604051602081830303815290604052805190602001209050919050565b6000818152600160205260408120548190610100900460ff166106565760405162461bcd60e51b81526020600482015260116024820152701c995c5d595cdd081b9bdd08199bdd5b99607a1b604482015260640161019b565b6000838152600160208181526040808420815160a081018352815460ff80821615158352610100820416151594820194909452620100009093046001600160a01b03169183019190915291820180549192916060840191906106b790610a52565b80601f01602080910402602001604051908101604052809291908181526020018280546106e390610a52565b80156107305780601f1061070557610100808354040283529160200191610730565b820191906000526020600020905b81548152906001019060200180831161071357829003601f168201915b505050505081526020016002820154815250509050806000015181608001519250925050915091565b6040517f19457468657265756d205369676e6564204d6573736167653a0a3332000000006020820152603c8101829052600090605c016105e0565b6000806000806107a385610813565b6040805160008152602081018083528b905260ff8316918101919091526060810184905260808101839052929550909350915060019060a0016020604051602081039080840390855afa1580156107fe573d6000803e3d6000fd5b5050604051601f190151979650505050505050565b600080600083516041146108695760405162461bcd60e51b815260206004820152601860248201527f696e76616c6964207369676e6174757265206c656e6774680000000000000000604482015260640161019b565b50505060208101516040820151606090920151909260009190911a90565b80356001600160a01b038116811461089e57600080fd5b919050565b6000806000606084860312156108b857600080fd5b83359250602084013591506108cf60408501610887565b90509250925092565b6000602082840312156108ea57600080fd5b5035919050565b634e487b7160e01b600052604160045260246000fd5b6000806000806080858703121561091d57600080fd5b84359350602085013567ffffffffffffffff8082111561093c57600080fd5b818701915087601f83011261095057600080fd5b813581811115610962576109626108f1565b604051601f8201601f19908116603f0116810190838211818310171561098a5761098a6108f1565b816040528281528a60208487010111156109a357600080fd5b8260208601602083013760006020848301015280975050505050506109ca60408601610887565b9396929550929360600135925050565b851515815260006020861515602084015260018060a01b038616604084015260a0606084015284518060a085015260005b81811015610a275786810183015185820160c001528201610a0b565b50600060c0828601015260c0601f19601f830116850101925050508260808301529695505050505050565b600181811c90821680610a6657607f821691505b602082108103610a8657634e487b7160e01b600052602260045260246000fd5b50919050565b601f821115610ad8576000816000526020600020601f850160051c81016020861015610ab55750805b601f850160051c820191505b81811015610ad457828155600101610ac1565b5050505b505050565b815167ffffffffffffffff811115610af757610af76108f1565b610b0b81610b058454610a52565b84610a8c565b602080601f831160018114610b405760008415610b285750858301515b600019600386901b1c1916600185901b178555610ad4565b600085815260208120601f198616915b82811015610b6f57888601518255948401946001909101908401610b50565b5085821015610b8d5787850151600019600388901b60f8161c191681555b5050505050600190811b0190555056fea264697066735822122067c2b4e507590fb20a3268ad1a3af4d5a471fb7477940c237e51eb32c0cc8af864736f6c63430008180033",
  "linkReferences": {},
  "deployedLinkReferences": {}
}