{
  "_format": "hh-sol-artifact-1",
  "contractName": "VRF",
  "sourceName": "src/contracts/VRF.sol",
  "abi": [
    {
      "inputs": [],
      "stateMutability": "nonpayable",
      "type": "constructor"
    },
    {
      "inputs": [
        {
          "internalType": "uint256",
          "name": "_requestId",
          "type": "uint256"
        }
      ],
      "name": "getRequestStatus",
      "outputs": [
        {
          "internalType": "bool",
          "name": "fulfilled",
          "type": "bool"
        },
        {
          "internalType": "uint256",
          "name": "randomWords",
          "type": "uint256"
        }
      ],
      "stateMutability": "view",
      "type": "function"
    },
    {
      "inputs": [
        {
          "internalType": "uint256",
          "name": "_requestId",
          "type": "uint256"
        },
        {
          "internalType": "address",
          "name": "signer",
          "type": "address"
        }
      ],
      "name": "init",
      "outputs": [],
      "stateMutability": "nonpayable",
      "type": "function"
    },
    {
      "inputs": [],
      "name": "lastRequestId",
      "outputs": [
        {
          "internalType": "uint256",
          "name": "",
          "type": "uint256"
        }
      ],
      "stateMutability": "view",
      "type": "function"
    },
    {
      "inputs": [
        {
          "internalType": "uint256",
          "name": "",
          "type": "uint256"
        }
      ],
      "name": "requestIds",
      "outputs": [
        {
          "internalType": "uint256",
          "name": "",
          "type": "uint256"
        }
      ],
      "stateMutability": "view",
      "type": "function"
    },
    {
      "inputs": [
        {
          "internalType": "uint256",
          "name": "_randomWords",
          "type": "uint256"
        },
        {
          "internalType": "bytes",
          "name": "_signature",
          "type": "bytes"
        },
        {
          "internalType": "address",
          "name": "signer",
          "type": "address"
        },
        {
          "internalType": "uint256",
          "name": "_requestId",
          "type": "uint256"
        }
      ],
      "name": "setRandomWords",
      "outputs": [
        {
          "internalType": "uint256",
          "name": "requestId",
          "type": "uint256"
        }
      ],
      "stateMutability": "nonpayable",
      "type": "function"
    },
    {
      "inputs": [
        {
          "internalType": "uint256",
          "name": "_requestId",
          "type": "uint256"
        },
        {
          "internalType": "uint256",
          "name": "_randomWords",
          "type": "uint256"
        },
        {
          "internalType": "address",
          "name": "_signer",
          "type": "address"
        }
      ],
      "name": "verify",
      "outputs": [
        {
          "internalType": "bool",
          "name": "",
          "type": "bool"
        }
      ],
      "stateMutability": "view",
      "type": "function"
    }
  ],
  "bytecode": "0x608060405234801561001057600080fd5b50600080546001600160a01b03191633179055610b31806100326000396000f3fe608060405234801561001057600080fd5b50600436106100625760003560e01c8063731d9c88146100675780638796ba8c1461008f578063893d880e146100b0578063b792e6ec146100c3578063d8a4676f146100d8578063fc2a88c314610102575b600080fd5b61007a61007536600461084d565b61010b565b60405190151581526020015b60405180910390f35b6100a261009d366004610882565b6102fd565b604051908152602001610086565b6100a26100be3660046108b1565b61031e565b6100d66100d1366004610984565b61048f565b005b6100eb6100e6366004610882565b610575565b604080519215158352602083019190915201610086565b6100a260035481565b600083815260016020526040812054610100900460ff166101675760405162461bcd60e51b81526020600482015260116024820152701c995c5d595cdd081b9bdd08199bdd5b99607a1b60448201526064015b60405180910390fd5b6000848152600160208181526040808420815160a081018352815460ff80821615158352610100820416151594820194909452620100009093046001600160a01b03169183019190915291820180549192916060840191906101c8906109b0565b80601f01602080910402602001604051908101604052809291908181526020018280546101f4906109b0565b80156102415780601f1061021657610100808354040283529160200191610241565b820191906000526020600020905b81548152906001019060200180831161022457829003601f168201915b5050505050815260200160028201548152505090506000610261856106d1565b9050600061026e82610703565b9050846001600160a01b031661028882856060015161073e565b6001600160a01b0316146102a257600093505050506102f6565b82608001516040516020016102b991815260200190565b60408051601f1981840301815282825280516020918201209083018990529101604051602081830303815290604052805190602001201493505050505b9392505050565b6002818154811061030d57600080fd5b600091825260209091200154905081565b600080546001600160a01b031633146103655760405162461bcd60e51b81526020600482015260096024820152682737ba1037bbb732b960b91b604482015260640161015e565b6000610370866106d1565b9050600061037d82610703565b9050846001600160a01b0316610393828861073e565b6001600160a01b0316146103db5760405162461bcd60e51b815260206004820152600f60248201526e0a6d2cedccae440dad2e6dac2e8c6d608b1b604482015260640161015e565b6040805160a081018252600180825260208083018281526001600160a01b038a8116858701908152606086018d8152608087018f905260008c81529486905296909320855181549351945161ffff1990941690151561ff00191617610100941515949094029390931762010000600160b01b0319166201000092909116919091021781559251919291908201906104729082610a3b565b506080919091015160029091015550505060038190559392505050565b6040805160a0810182526000808252600160208084018281526001600160a01b038781168688019081528751808501895286815260608801908152608088018790528a87529385905296909420855181549251975161ffff1990931690151561ff00191617610100971515979097029690961762010000600160b01b0319166201000091909416029290921784559051919291908201906105309082610a3b565b506080919091015160029182015580546001810182556000919091527f405787fa12a823e0f2b7631cc41b3ba8828b3321ca811111fa75cd3aa3bb5ace019190915550565b6000818152600160205260408120548190610100900460ff166105ce5760405162461bcd60e51b81526020600482015260116024820152701c995c5d595cdd081b9bdd08199bdd5b99607a1b604482015260640161015e565b6000838152600160208181526040808420815160a081018352815460ff80821615158352610100820416151594820194909452620100009093046001600160a01b031691830191909152918201805491929160608401919061062f906109b0565b80601f016020809104026020016040519081016040528092919081815260200182805461065b906109b0565b80156106a85780601f1061067d576101008083540402835291602001916106a8565b820191906000526020600020905b81548152906001019060200180831161068b57829003601f168201915b505050505081526020016002820154815250509050806000015181608001519250925050915091565b6000816040516020016106e691815260200190565b604051602081830303815290604052805190602001209050919050565b6040517f19457468657265756d205369676e6564204d6573736167653a0a3332000000006020820152603c8101829052600090605c016106e6565b60008060008061074d856107bd565b6040805160008152602081018083528b905260ff8316918101919091526060810184905260808101839052929550909350915060019060a0016020604051602081039080840390855afa1580156107a8573d6000803e3d6000fd5b5050604051601f190151979650505050505050565b600080600083516041146108135760405162461bcd60e51b815260206004820152601860248201527f696e76616c6964207369676e6174757265206c656e6774680000000000000000604482015260640161015e565b50505060208101516040820151606090920151909260009190911a90565b80356001600160a01b038116811461084857600080fd5b919050565b60008060006060848603121561086257600080fd5b833592506020840135915061087960408501610831565b90509250925092565b60006020828403121561089457600080fd5b5035919050565b634e487b7160e01b600052604160045260246000fd5b600080600080608085870312156108c757600080fd5b84359350602085013567ffffffffffffffff808211156108e657600080fd5b818701915087601f8301126108fa57600080fd5b81358181111561090c5761090c61089b565b604051601f8201601f19908116603f011681019083821181831017156109345761093461089b565b816040528281528a602084870101111561094d57600080fd5b82602086016020830137600060208483010152809750505050505061097460408601610831565b9396929550929360600135925050565b6000806040838503121561099757600080fd5b823591506109a760208401610831565b90509250929050565b600181811c908216806109c457607f821691505b6020821081036109e457634e487b7160e01b600052602260045260246000fd5b50919050565b601f821115610a36576000816000526020600020601f850160051c81016020861015610a135750805b601f850160051c820191505b81811015610a3257828155600101610a1f565b5050505b505050565b815167ffffffffffffffff811115610a5557610a5561089b565b610a6981610a6384546109b0565b846109ea565b602080601f831160018114610a9e5760008415610a865750858301515b600019600386901b1c1916600185901b178555610a32565b600085815260208120601f198616915b82811015610acd57888601518255948401946001909101908401610aae565b5085821015610aeb5787850151600019600388901b60f8161c191681555b5050505050600190811b0190555056fea2646970667358221220299b450dd63ab9b7f760c27a54eb0b1bd337f5d2c55c7e9da9fd58222a74689e64736f6c63430008180033",
  "linkReferences": {},
  "deployedLinkReferences": {}
}