{
  "abi": [
    {
      "type": "constructor",
      "inputs": [
        {
          "name": "_token",
          "type": "address",
          "internalType": "address"
        },
        {
          "name": "_verifier",
          "type": "address",
          "internalType": "address"
        },
        {
          "name": "_admin",
          "type": "address",
          "internalType": "address"
        },
        {
          "name": "_maxAge",
          "type": "uint256",
          "internalType": "uint256"
        }
      ],
      "stateMutability": "nonpayable"
    },
    {
      "type": "function",
      "name": "ATTESTATION_MAX_AGE",
      "inputs": [],
      "outputs": [
        {
          "name": "",
          "type": "uint256",
          "internalType": "uint256"
        }
      ],
      "stateMutability": "view"
    },
    {
      "type": "function",
      "name": "ATTESTATION_VERIFIER",
      "inputs": [],
      "outputs": [
        {
          "name": "",
          "type": "address",
          "internalType": "contract IAttestationVerifier"
        }
      ],
      "stateMutability": "view"
    },
    {
      "type": "function",
      "name": "DEFAULT_ADMIN_ROLE",
      "inputs": [],
      "outputs": [
        {
          "name": "",
          "type": "bytes32",
          "internalType": "bytes32"
        }
      ],
      "stateMutability": "view"
    },
    {
      "type": "function",
      "name": "createJob",
      "inputs": [
        {
          "name": "_validations",
          "type": "tuple[]",
          "internalType": "struct IJobManager.ValidationSetup[]",
          "components": [
            {
              "name": "validationAddress",
              "type": "address",
              "internalType": "address"
            },
            {
              "name": "validationFunction",
              "type": "bytes4",
              "internalType": "bytes4"
            },
            {
              "name": "initializerFunction",
              "type": "bytes4",
              "internalType": "bytes4"
            },
            {
              "name": "initializerData",
              "type": "bytes",
              "internalType": "bytes"
            }
          ]
        },
        {
          "name": "_enclave_url",
          "type": "string",
          "internalType": "string"
        },
        {
          "name": "_pcrs",
          "type": "tuple",
          "internalType": "struct IJobManager.Image",
          "components": [
            {
              "name": "PCR0",
              "type": "bytes",
              "internalType": "bytes"
            },
            {
              "name": "PCR1",
              "type": "bytes",
              "internalType": "bytes"
            },
            {
              "name": "PCR2",
              "type": "bytes",
              "internalType": "bytes"
            }
          ]
        },
        {
          "name": "_input",
          "type": "bytes",
          "internalType": "bytes"
        },
        {
          "name": "_paymentPerSecond",
          "type": "uint256",
          "internalType": "uint256"
        },
        {
          "name": "_maxBaseFee",
          "type": "uint256",
          "internalType": "uint256"
        },
        {
          "name": "_maxPriorityFee",
          "type": "uint256",
          "internalType": "uint256"
        },
        {
          "name": "_gasRefundAmount",
          "type": "uint256",
          "internalType": "uint256"
        },
        {
          "name": "_amount",
          "type": "uint256",
          "internalType": "uint256"
        }
      ],
      "outputs": [
        {
          "name": "",
          "type": "uint256",
          "internalType": "uint256"
        }
      ],
      "stateMutability": "payable"
    },
    {
      "type": "function",
      "name": "executeJob",
      "inputs": [
        {
          "name": "jobId",
          "type": "uint256",
          "internalType": "uint256"
        },
        {
          "name": "data",
          "type": "bytes",
          "internalType": "bytes"
        },
        {
          "name": "rewardAddress",
          "type": "address",
          "internalType": "address"
        },
        {
          "name": "attestation",
          "type": "bytes",
          "internalType": "bytes"
        }
      ],
      "outputs": [],
      "stateMutability": "nonpayable"
    },
    {
      "type": "function",
      "name": "getRoleAdmin",
      "inputs": [
        {
          "name": "role",
          "type": "bytes32",
          "internalType": "bytes32"
        }
      ],
      "outputs": [
        {
          "name": "",
          "type": "bytes32",
          "internalType": "bytes32"
        }
      ],
      "stateMutability": "view"
    },
    {
      "type": "function",
      "name": "getRoleMember",
      "inputs": [
        {
          "name": "role",
          "type": "bytes32",
          "internalType": "bytes32"
        },
        {
          "name": "index",
          "type": "uint256",
          "internalType": "uint256"
        }
      ],
      "outputs": [
        {
          "name": "",
          "type": "address",
          "internalType": "address"
        }
      ],
      "stateMutability": "view"
    },
    {
      "type": "function",
      "name": "getRoleMemberCount",
      "inputs": [
        {
          "name": "role",
          "type": "bytes32",
          "internalType": "bytes32"
        }
      ],
      "outputs": [
        {
          "name": "",
          "type": "uint256",
          "internalType": "uint256"
        }
      ],
      "stateMutability": "view"
    },
    {
      "type": "function",
      "name": "getVerifiedKey",
      "inputs": [
        {
          "name": "_key",
          "type": "address",
          "internalType": "address"
        }
      ],
      "outputs": [
        {
          "name": "",
          "type": "bytes32",
          "internalType": "bytes32"
        }
      ],
      "stateMutability": "view"
    },
    {
      "type": "function",
      "name": "getWhitelistedImage",
      "inputs": [
        {
          "name": "_imageId",
          "type": "bytes32",
          "internalType": "bytes32"
        }
      ],
      "outputs": [
        {
          "name": "",
          "type": "tuple",
          "internalType": "struct AttestationAuther.EnclaveImage",
          "components": [
            {
              "name": "PCR0",
              "type": "bytes",
              "internalType": "bytes"
            },
            {
              "name": "PCR1",
              "type": "bytes",
              "internalType": "bytes"
            },
            {
              "name": "PCR2",
              "type": "bytes",
              "internalType": "bytes"
            }
          ]
        }
      ],
      "stateMutability": "view"
    },
    {
      "type": "function",
      "name": "grantRole",
      "inputs": [
        {
          "name": "role",
          "type": "bytes32",
          "internalType": "bytes32"
        },
        {
          "name": "account",
          "type": "address",
          "internalType": "address"
        }
      ],
      "outputs": [],
      "stateMutability": "nonpayable"
    },
    {
      "type": "function",
      "name": "hasRole",
      "inputs": [
        {
          "name": "role",
          "type": "bytes32",
          "internalType": "bytes32"
        },
        {
          "name": "account",
          "type": "address",
          "internalType": "address"
        }
      ],
      "outputs": [
        {
          "name": "",
          "type": "bool",
          "internalType": "bool"
        }
      ],
      "stateMutability": "view"
    },
    {
      "type": "function",
      "name": "isEnclaveKeyValid",
      "inputs": [
        {
          "name": "key",
          "type": "address",
          "internalType": "address"
        }
      ],
      "outputs": [],
      "stateMutability": "view"
    },
    {
      "type": "function",
      "name": "jobCount",
      "inputs": [],
      "outputs": [
        {
          "name": "",
          "type": "uint256",
          "internalType": "uint256"
        }
      ],
      "stateMutability": "view"
    },
    {
      "type": "function",
      "name": "jobs",
      "inputs": [
        {
          "name": "",
          "type": "uint256",
          "internalType": "uint256"
        }
      ],
      "outputs": [
        {
          "name": "creator",
          "type": "address",
          "internalType": "address"
        },
        {
          "name": "image",
          "type": "tuple",
          "internalType": "struct IJobManager.Image",
          "components": [
            {
              "name": "PCR0",
              "type": "bytes",
              "internalType": "bytes"
            },
            {
              "name": "PCR1",
              "type": "bytes",
              "internalType": "bytes"
            },
            {
              "name": "PCR2",
              "type": "bytes",
              "internalType": "bytes"
            }
          ]
        },
        {
          "name": "enclave_url",
          "type": "string",
          "internalType": "string"
        },
        {
          "name": "input",
          "type": "bytes",
          "internalType": "bytes"
        },
        {
          "name": "paymentPerSecond",
          "type": "uint256",
          "internalType": "uint256"
        },
        {
          "name": "lastExecutionTime",
          "type": "uint256",
          "internalType": "uint256"
        },
        {
          "name": "maxBaseFee",
          "type": "uint256",
          "internalType": "uint256"
        },
        {
          "name": "maxPriorityFee",
          "type": "uint256",
          "internalType": "uint256"
        },
        {
          "name": "gasRefundAmount",
          "type": "uint256",
          "internalType": "uint256"
        },
        {
          "name": "amount",
          "type": "uint256",
          "internalType": "uint256"
        }
      ],
      "stateMutability": "view"
    },
    {
      "type": "function",
      "name": "renounceRole",
      "inputs": [
        {
          "name": "role",
          "type": "bytes32",
          "internalType": "bytes32"
        },
        {
          "name": "account",
          "type": "address",
          "internalType": "address"
        }
      ],
      "outputs": [],
      "stateMutability": "nonpayable"
    },
    {
      "type": "function",
      "name": "revokeRole",
      "inputs": [
        {
          "name": "role",
          "type": "bytes32",
          "internalType": "bytes32"
        },
        {
          "name": "account",
          "type": "address",
          "internalType": "address"
        }
      ],
      "outputs": [],
      "stateMutability": "nonpayable"
    },
    {
      "type": "function",
      "name": "supportsInterface",
      "inputs": [
        {
          "name": "interfaceId",
          "type": "bytes4",
          "internalType": "bytes4"
        }
      ],
      "outputs": [
        {
          "name": "",
          "type": "bool",
          "internalType": "bool"
        }
      ],
      "stateMutability": "view"
    },
    {
      "type": "function",
      "name": "token",
      "inputs": [],
      "outputs": [
        {
          "name": "",
          "type": "address",
          "internalType": "contract IERC20"
        }
      ],
      "stateMutability": "view"
    },
    {
      "type": "function",
      "name": "updateToken",
      "inputs": [
        {
          "name": "_token",
          "type": "address",
          "internalType": "address"
        }
      ],
      "outputs": [],
      "stateMutability": "nonpayable"
    },
    {
      "type": "function",
      "name": "verifyKey",
      "inputs": [
        {
          "name": "signature",
          "type": "bytes",
          "internalType": "bytes"
        },
        {
          "name": "enclavePubKey",
          "type": "bytes",
          "internalType": "bytes"
        },
        {
          "name": "imageId",
          "type": "bytes32",
          "internalType": "bytes32"
        },
        {
          "name": "enclaveCPUs",
          "type": "uint256",
          "internalType": "uint256"
        },
        {
          "name": "enclaveMemory",
          "type": "uint256",
          "internalType": "uint256"
        },
        {
          "name": "timestampInMilliseconds",
          "type": "uint256",
          "internalType": "uint256"
        }
      ],
      "outputs": [],
      "stateMutability": "nonpayable"
    },
    {
      "type": "function",
      "name": "whitelistEnclaveImage",
      "inputs": [
        {
          "name": "image",
          "type": "tuple",
          "internalType": "struct AttestationAuther.EnclaveImage",
          "components": [
            {
              "name": "PCR0",
              "type": "bytes",
              "internalType": "bytes"
            },
            {
              "name": "PCR1",
              "type": "bytes",
              "internalType": "bytes"
            },
            {
              "name": "PCR2",
              "type": "bytes",
              "internalType": "bytes"
            }
          ]
        }
      ],
      "outputs": [],
      "stateMutability": "nonpayable"
    },
    {
      "type": "function",
      "name": "whitelistEnclaveKey",
      "inputs": [
        {
          "name": "enclavePubKey",
          "type": "bytes",
          "internalType": "bytes"
        },
        {
          "name": "imageId",
          "type": "bytes32",
          "internalType": "bytes32"
        }
      ],
      "outputs": [],
      "stateMutability": "nonpayable"
    },
    {
      "type": "event",
      "name": "EnclaveImageRevoked",
      "inputs": [
        {
          "name": "imageId",
          "type": "bytes32",
          "indexed": true,
          "internalType": "bytes32"
        }
      ],
      "anonymous": false
    },
    {
      "type": "event",
      "name": "EnclaveImageWhitelisted",
      "inputs": [
        {
          "name": "imageId",
          "type": "bytes32",
          "indexed": true,
          "internalType": "bytes32"
        },
        {
          "name": "PCR0",
          "type": "bytes",
          "indexed": false,
          "internalType": "bytes"
        },
        {
          "name": "PCR1",
          "type": "bytes",
          "indexed": false,
          "internalType": "bytes"
        },
        {
          "name": "PCR2",
          "type": "bytes",
          "indexed": false,
          "internalType": "bytes"
        }
      ],
      "anonymous": false
    },
    {
      "type": "event",
      "name": "EnclaveKeyRevoked",
      "inputs": [
        {
          "name": "enclavePubKey",
          "type": "bytes",
          "indexed": true,
          "internalType": "bytes"
        }
      ],
      "anonymous": false
    },
    {
      "type": "event",
      "name": "EnclaveKeyVerified",
      "inputs": [
        {
          "name": "enclavePubKey",
          "type": "bytes",
          "indexed": true,
          "internalType": "bytes"
        },
        {
          "name": "imageId",
          "type": "bytes32",
          "indexed": true,
          "internalType": "bytes32"
        }
      ],
      "anonymous": false
    },
    {
      "type": "event",
      "name": "EnclaveKeyWhitelisted",
      "inputs": [
        {
          "name": "enclavePubKey",
          "type": "bytes",
          "indexed": true,
          "internalType": "bytes"
        },
        {
          "name": "imageId",
          "type": "bytes32",
          "indexed": true,
          "internalType": "bytes32"
        }
      ],
      "anonymous": false
    },
    {
      "type": "event",
      "name": "JobCreated",
      "inputs": [
        {
          "name": "jobId",
          "type": "uint256",
          "indexed": true,
          "internalType": "uint256"
        },
        {
          "name": "enclaveUrl",
          "type": "string",
          "indexed": false,
          "internalType": "string"
        },
        {
          "name": "input",
          "type": "bytes",
          "indexed": false,
          "internalType": "bytes"
        },
        {
          "name": "creator",
          "type": "address",
          "indexed": true,
          "internalType": "address"
        },
        {
          "name": "validations",
          "type": "tuple[]",
          "indexed": false,
          "internalType": "struct JobManager.Validation[]",
          "components": [
            {
              "name": "validationAddress",
              "type": "address",
              "internalType": "address"
            },
            {
              "name": "validationFunction",
              "type": "bytes4",
              "internalType": "bytes4"
            }
          ]
        },
        {
          "name": "paymentPerSecond",
          "type": "uint256",
          "indexed": false,
          "internalType": "uint256"
        },
        {
          "name": "maxBaseFee",
          "type": "uint256",
          "indexed": false,
          "internalType": "uint256"
        },
        {
          "name": "maxPriorityFee",
          "type": "uint256",
          "indexed": false,
          "internalType": "uint256"
        },
        {
          "name": "gasRefundAmount",
          "type": "uint256",
          "indexed": false,
          "internalType": "uint256"
        },
        {
          "name": "amount",
          "type": "uint256",
          "indexed": false,
          "internalType": "uint256"
        }
      ],
      "anonymous": false
    },
    {
      "type": "event",
      "name": "JobExecuted",
      "inputs": [
        {
          "name": "jobId",
          "type": "uint256",
          "indexed": true,
          "internalType": "uint256"
        },
        {
          "name": "executor",
          "type": "address",
          "indexed": true,
          "internalType": "address"
        },
        {
          "name": "rewardAddress",
          "type": "address",
          "indexed": true,
          "internalType": "address"
        },
        {
          "name": "payment",
          "type": "uint256",
          "indexed": false,
          "internalType": "uint256"
        },
        {
          "name": "data",
          "type": "bytes",
          "indexed": false,
          "internalType": "bytes"
        }
      ],
      "anonymous": false
    },
    {
      "type": "event",
      "name": "RoleAdminChanged",
      "inputs": [
        {
          "name": "role",
          "type": "bytes32",
          "indexed": true,
          "internalType": "bytes32"
        },
        {
          "name": "previousAdminRole",
          "type": "bytes32",
          "indexed": true,
          "internalType": "bytes32"
        },
        {
          "name": "newAdminRole",
          "type": "bytes32",
          "indexed": true,
          "internalType": "bytes32"
        }
      ],
      "anonymous": false
    },
    {
      "type": "event",
      "name": "RoleGranted",
      "inputs": [
        {
          "name": "role",
          "type": "bytes32",
          "indexed": true,
          "internalType": "bytes32"
        },
        {
          "name": "account",
          "type": "address",
          "indexed": true,
          "internalType": "address"
        },
        {
          "name": "sender",
          "type": "address",
          "indexed": true,
          "internalType": "address"
        }
      ],
      "anonymous": false
    },
    {
      "type": "event",
      "name": "RoleRevoked",
      "inputs": [
        {
          "name": "role",
          "type": "bytes32",
          "indexed": true,
          "internalType": "bytes32"
        },
        {
          "name": "account",
          "type": "address",
          "indexed": true,
          "internalType": "address"
        },
        {
          "name": "sender",
          "type": "address",
          "indexed": true,
          "internalType": "address"
        }
      ],
      "anonymous": false
    },
    {
      "type": "event",
      "name": "TokenUpdated",
      "inputs": [
        {
          "name": "token",
          "type": "address",
          "indexed": true,
          "internalType": "address"
        }
      ],
      "anonymous": false
    },
    {
      "type": "event",
      "name": "VerifierUpdated",
      "inputs": [
        {
          "name": "verifier",
          "type": "address",
          "indexed": true,
          "internalType": "address"
        }
      ],
      "anonymous": false
    }
  ],
  "bytecode": {
    "object": "0x60c080604052346200086357608081620036f6803803809162000023828562000868565b833981010312620008635762000039816200088c565b9062000048602082016200088c565b90606062000059604083016200088c565b91015160405192602084016001600160401b0381118582101762000408576040526000845260018060a01b031660805260a05260005b82518110156200066d5760208160051b840101516030808251511490816200065d575b816200064d575b5015620005fe578051602082015162000127602060408501519260405193849183620000ef8185019889815193849201620008a1565b83016200010582518093878085019101620008a1565b016200011a82518093868085019101620008a1565b0103808452018262000868565b5190209081600052600060205262000144604060002054620008c6565b620005b957805160208201516040830151906040519283606081011060018060401b03606086011117620004085760608401604052835260208301526040820152826000526000602052604060002090805180519060018060401b03821162000408578190620001b58554620008c6565b601f811162000564575b50602090601f8311600114620004fa57600092620004ee575b50508160011b916000199060031b1c19161782555b60208101518051906001600160401b0382116200040857620002136001850154620008c6565b601f8111620004a2575b50602090601f83116001146200042a576040939291600091836200041e575b50508160011b916000199060031b1c19161760018401555b01518051906001600160401b0382116200040857620002776002840154620008c6565b601f8111620003bc575b50602090601f83116001146200032e5792600283620002fa94600199989794600080516020620036968339815191529760009262000322575b5050600019600383901b1c191690891b179101555b6200031881519162000309604060208301519201519160405195869560608752606087019062000903565b90858203602087015262000903565b90838203604085015262000903565b0390a2016200008f565b015190503880620002ba565b906002840160005260206000209160005b601f1985168110620003a357506001848199989794600080516020620036968339815191529794600294620002fa98601f1981161062000389575b505050811b01910155620002cf565b015160001960f88460031b161c191690553880806200037a565b919260206001819286850151815501940192016200033f565b600284016000526020600020601f840160051c81016020851062000400575b601f830160051c82018110620003f357505062000281565b60008155600101620003db565b5080620003db565b634e487b7160e01b600052604160045260246000fd5b0151905038806200023c565b906001850160005260206000209160005b601f198516811062000489575091839160019360409695601f198116106200046f575b505050811b01600184015562000254565b015160001960f88460031b161c191690553880806200045e565b919260206001819286850151815501940192016200043b565b600185016000526020600020601f840160051c810160208510620004e6575b601f830160051c82018110620004d95750506200021d565b60008155600101620004c1565b5080620004c1565b015190503880620001d8565b60008681526020812093505b601f19851681106200054b575083601f1981161062000531575b505050600190811b018255620001ed565b015160001960f88460031b161c1916905538808062000520565b9192602060018192868501518155019401920162000506565b909150846000526020600020601f840160051c810160208510620005b1575b90849392915b601f830160051c82018110620005a1575050620001bf565b6000815585945060010162000589565b508062000583565b60405162461bcd60e51b815260206004820152601f60248201527f41413a57492d696d61676520616c72656164792077686974656c6973746564006044820152606490fd5b60405162461bcd60e51b815260206004820152602160248201527f41413a57492d5043522076616c756573206d75737420626520343820627974656044820152607360f81b6064820152608490fd5b90506040820151511438620000b9565b60208301515181149150620000b2565b506001600160a01b0383169081156200082e57600680546001600160a01b0319168317905562000757917f5ba6b30cd4b2f9e9e67f4feb9b9df10d5da3b057598e6901b217b7d590345e30600080a2336000908152600080516020620036b6833981519152602052604090205460ff16620007dd575b6000805260036020526200070733600080516020620036d683398151915262000959565b506001600160a01b03166000818152600080516020620036b6833981519152602052604090205460ff161562000788575b600080526003602052600080516020620036d683398151915262000a6d565b50604051612bb0908162000ae6823960805181818161022e0152610832015260a0518181816101e501526111a60152f35b6000818152600080516020620036b683398151915260205260408120805460ff19166001179055339082907f2f8788117e7eff1d82e926ec794901d17c78024a50270940304540a733656f0d8180a462000738565b336000818152600080516020620036b683398151915260205260408120805460ff1916905581907ff6391f5c32d9c69d2a47ea670b442974b53935d1edc7fd64eb21e047a839171b8180a4620006e3565b60405162461bcd60e51b815260206004820152600d60248201526c24b73b30b634b2103a37b5b2b760991b6044820152606490fd5b600080fd5b601f909101601f19168101906001600160401b038211908210176200040857604052565b51906001600160a01b03821682036200086357565b60005b838110620008b55750506000910152565b8181015183820152602001620008a4565b90600182811c92168015620008f8575b6020831014620008e257565b634e487b7160e01b600052602260045260246000fd5b91607f1691620008d6565b906020916200091e81518092818552858086019101620008a1565b601f01601f1916010190565b8054821015620009435760005260206000200190600090565b634e487b7160e01b600052603260045260246000fd5b9060018201906000928184528260205260408420549081151560001462000a66576000199180830181811162000a525782549084820191821162000a3e57808203620009ec575b50505080548015620009d857820191620009bb83836200092a565b909182549160031b1b191690555582526020526040812055600190565b634e487b7160e01b86526031600452602486fd5b62000a2862000a0062000a1193866200092a565b90549060031b1c928392866200092a565b819391549060031b91821b91600019901b19161790565b90558652846020526040862055388080620009a0565b634e487b7160e01b88526011600452602488fd5b634e487b7160e01b87526011600452602487fd5b5050505090565b9190600183016000908282528060205260408220541560001462000adf578454946801000000000000000086101562000acb578362000abb62000a11886001604098999a018555846200092a565b9055549382526020522055600190565b634e487b7160e01b83526041600452602483fd5b5092505056fe608080604052600436101561001357600080fd5b600090813560e01c90816301d58fa31461174d5750806301ffc9a7146116dc578063122748ab146115e6578063180aedf3146114f05780632410f6ba14611495578063248a9ca3146114685780632f2ff15d146113a857806336568abe146113155780634c5d8a0f146112f75780637ad3def2146112585780639010d07c1461121257806391d14854146111c95780639aec990e1461118e578063a0ab4f2f14611125578063a217fddf14611109578063a7b39a151461088b578063ca15c87314610861578063cd79f9061461081c578063d547741f146107db578063debf726b1461068f578063dec8e4dd14610472578063fb94db2b146101495763fc0c546a1461011e57600080fd5b346101465780600319360112610146576006546040516001600160a01b039091168152602090f35b80fd5b50346101465760031960c03682011261046e576001600160401b0360043581811161046a5761017c903690600401611a34565b90602492833582811161046657610197903690600401611a34565b926044359460a435938688526020948886526101b660408a20546117c9565b1561040c576001600160a01b0393846101ce896126da565b1695868b526001885260408b20546103bd5761020a7f000000000000000000000000000000000000000000000000000000000000000042611b58565b6103e88404111561037957908a92918a845283895261022b60408520611906565b967f0000000000000000000000000000000000000000000000000000000000000000169187519360408b8a0151990151843b15610375578c936040519a8b978896879663ac0f0bd560e01b8852600488016101009052610104880161028f9161197b565b8781038501888f01526102a19161197b565b838782030160448801526102b49161197b565b828682030160648701526102c79161197b565b908482030160848501526102da9161197b565b9060643560a484015260843560c484015260e483015203915afa801561036a5761033f575b50505061031892916001918652528260408520556126ba565b7ff4837f1a66a1e5fbde2c40d0f6eff75183139e79b0fc1eaab280a3a0be38e7b18380a380f35b82979397116103585750604052938160016103186102ff565b634e487b7160e01b8352604160045282fd5b6040513d8a823e3d90fd5b8680fd5b60405162461bcd60e51b8152600481018990526019818701527f41413a564b2d4174746573746174696f6e20746f6f206f6c64000000000000006044820152606490fd5b60405162461bcd60e51b8152600481018990526022818701527f41413a564b2d456e636c617665206b657920616c726561647920766572696669604482015261195960f21b6064820152608490fd5b60405162461bcd60e51b815260048101879052602d818501527f41413a564b2d456e636c61766520696d61676520746f20766572696679206e6f60448201526c1d081dda1a5d195b1a5cdd1959609a1b6064820152608490fd5b8580fd5b8380fd5b5080fd5b50346101465760208060031936011261046e576004356001600160401b03811161068b576104a4903690600401611a4f565b906104ad61232d565b6030825151148061067d575b8061066e575b1561062057815181830191825191604085019261052683855192604051938491836104f38185019889815193849201611958565b830161050782518093878085019101611958565b0161051a82518093868085019101611958565b010380845201826118e5565b5190209384865285825261053d60408720546117c9565b6105db576105ba926105c77f52b29bbdd97ab983419f50fa1590e5ab75e9942279e95e10a08607b06c23238b9593836105a06105d5955187518651906040519261058684611899565b83528583015260408201528a8c528b845260408c206120cb565b51945192519260405196879660608852606088019061197b565b918683039087015261197b565b90838203604085015261197b565b0390a280f35b60405162461bcd60e51b815260048101839052601f60248201527f41413a57492d696d61676520616c72656164792077686974656c6973746564006044820152606490fd5b6084906040519062461bcd60e51b82526004820152602160248201527f41413a57492d5043522076616c756573206d75737420626520343820627974656044820152607360f81b6064820152fd5b506030604083015151146104bf565b5060308183015151146104b9565b8280fd5b5034610146576040366003190112610146576004356001600160401b03811161046e576106c0903690600401611a34565b602435906106cc61232d565b818352826020526106e060408420546117c9565b15610796576001600160a01b036106f6826126da565b1690818452600160205260408420546107465761071f91845260016020528260408520556126ba565b7f03e7f4efa4ebc44ae1b51254c998967937e762b8ef78a5edd1501a2403f6f3878380a380f35b60405162461bcd60e51b815260206004820152602260248201527f41413a574b2d456e636c617665206b657920616c726561647920766572696669604482015261195960f21b6064820152608490fd5b60405162461bcd60e51b815260206004820152601b60248201527f41413a574b2d496d616765206e6f742077686974656c697374656400000000006044820152606490fd5b5034610146576040366003190112610146576108196004356107fb61179e565b9080845260026020526108146001604086200154612528565b612634565b80f35b50346101465780600319360112610146576040517f00000000000000000000000000000000000000000000000000000000000000006001600160a01b03168152602090f35b50346101465760203660031901126101465760406020916004358152600383522054604051908152f35b50610120366003190112610146576004356001600160401b03811161046e573660238201121561046e578060040135906001600160401b0382116110f5578160051b90604051926108df60208401856118e5565b8352602460208401928201019036821161103b5760248101925b82841061103f5785856024356001600160401b03811161068b573660238201121561068b576109329036906024816004013591016119fd565b906044356001600160401b03811161046a57610952903690600401611a4f565b6064356001600160401b03811161103b57610971903690600401611a34565b926101043515610fff576006546040516323b872dd60e01b815233600482015230602482015261010435604482015290602090829060649082908a906001600160a01b03165af18015610ff457610fc5575b506004546000198114610fb1576001018060045585526005602052610a2d6040862092336bffffffffffffffffffffffff60a01b855416178455805190604060208201519101519060405192610a1884611899565b835260208301526040820152600284016120cb565b80516001600160401b038111610f2957610a5781610a4e60058601546117c9565b60058601612075565b6020601f8211600114610f48579080610a85928891610f3d575b508160011b916000199060031b1c19161790565b60058301555b83516001600160401b038111610f2957610ab581610aac60068601546117c9565b60068601612075565b6020601f8211600114610ec0579080610ae2928891610eb557508160011b916000199060031b1c19161790565b60068301555b608435600783015542600883015560a435600983015560c435600a83015560e4353410610e705760e435600b83015561010435600c830155845b8351811015610d8b57610b358185612319565b5180516001600160a01b031615610d465760208101516001600160e01b03191615610d015786809160018060a01b03815116908285610bab63ffffffff60e01b60408501511693610b9d60606004549201516040519485936020850198895260248501611af4565b03601f1981018352826118e5565b51925af1610bb7611b10565b5015610cbc576001600160a01b03610bcf8286612319565b5151166001600160e01b03196020610be78488612319565b51015116604051918260408101106001600160401b03604085011117610ca85760408301604052825260208201526001840154600160401b811015610c9457806001610c3c9201600187015560018601611ac6565b919091610c8057805182546020909201516001600160c01b03199092166001600160a01b03919091161760409190911c63ffffffff60a01b16179055600101610b22565b634e487b7160e01b88526004889052602488fd5b634e487b7160e01b88526041600452602488fd5b634e487b7160e01b89526041600452602489fd5b60405162461bcd60e51b815260206004820152601f60248201527f56616c69646174696f6e20696e6974616c697a6174696f6e206661696c6564006044820152606490fd5b60405162461bcd60e51b815260206004820152601b60248201527f496e76616c69642076616c69646174696f6e2066756e6374696f6e00000000006044820152606490fd5b60405162461bcd60e51b815260206004820152601a60248201527f496e76616c69642076616c69646174696f6e20616464726573730000000000006044820152606490fd5b50838286610db960045493610dab6040519661010080895288019061197b565b90868203602088015261197b565b8481036040860152600160208185015492838152019301825260208220915b818110610e3e57505050817fec48fb81ac791e6f7255f085b7625d812f9a6535bb36883428d2e7f9ffbf5ff3602094608435606082015260a435608082015260c43560a082015260e43560c08201526101043560e08201528033940390a3604051908152f35b82546001600160a01b0381168552604090811b6001600160e01b03191660208601529093019260019283019201610dd8565b60405162461bcd60e51b815260206004820152601e60248201527f47617320726566756e6420616d6f756e7420696e73756666696369656e7400006044820152606490fd5b905086015188610a71565b906006840187526020872087925b601f1983168410610f11576001935082601f19811610610ef8575b5050811b016006830155610ae8565b87015160001960f88460031b161c191690558780610ee9565b87810151825560209384019360019092019101610ece565b634e487b7160e01b86526041600452602486fd5b905083015188610a71565b906005840187526020872087925b601f1983168410610f99576001935082601f19811610610f80575b5050811b016005830155610a8b565b84015160001960f88460031b161c191690558780610f71565b84810151825560209384019360019092019101610f56565b634e487b7160e01b86526011600452602486fd5b610fe69060203d602011610fed575b610fde81836118e5565b810190611b40565b50856109c3565b503d610fd4565b6040513d88823e3d90fd5b60405162461bcd60e51b8152602060048201526014602482015273125b9d985b1a59081d1bdad95b88185b5bdd5b9d60621b6044820152606490fd5b8480fd5b83356001600160401b0381116103755782016080918260231983360301126110f1576040519283018381106001600160401b03821117610ca85760405260248201356001600160a01b03811681036110ed57835261109f604483016117b4565b60208401526110b0606483016117b4565b60408401526084820135926001600160401b0384116110ed576110dd602094936024869536920101611a34565b60608201528152019301926108f9565b8880fd5b8780fd5b634e487b7160e01b83526041600452602483fd5b5034610146578060031936011261014657602090604051908152f35b5034610146576080366003190112610146576001600160401b0360243581811161068b57611157903690600401611a34565b6044356001600160a01b038116810361046a5760643592831161046a57611185610819933690600401611a34565b91600435611b7b565b503461014657806003193601126101465760206040517f00000000000000000000000000000000000000000000000000000000000000008152f35b50346101465760403660031901126101465760ff60406020926111ea61179e565b6004358252600285528282206001600160a01b03909116825284522054604051911615158152f35b50346101465760403660031901126101465761123f60209160043581526003835260406024359120611ac6565b905460405160039290921b1c6001600160a01b03168152f35b503461014657602036600319011261014657611272611783565b61127a61232d565b6001600160a01b031680156112c257600680546001600160a01b031916821790557f5ba6b30cd4b2f9e9e67f4feb9b9df10d5da3b057598e6901b217b7d590345e308280a280f35b60405162461bcd60e51b815260206004820152600d60248201526c24b73b30b634b2103a37b5b2b760991b6044820152606490fd5b50346101465780600319360112610146576020600454604051908152f35b50346101465760403660031901126101465761132f61179e565b336001600160a01b0382160361134b5761081990600435612634565b60405162461bcd60e51b815260206004820152602f60248201527f416363657373436f6e74726f6c3a2063616e206f6e6c792072656e6f756e636560448201526e103937b632b9903337b91039b2b63360891b6064820152608490fd5b50346101465760403660031901126101465761141a60043560036113ca61179e565b91808552602090600282526113e56001604088200154612528565b8086526002825260408087206001600160a01b0390951680885294835286205460ff161561141e575b8552526040832061284c565b5080f35b80865260028252604080872085885283528620805460ff191660011790553384827f2f8788117e7eff1d82e926ec794901d17c78024a50270940304540a733656f0d8980a461140e565b50346101465760203660031901126101465760016040602092600435815260028452200154604051908152f35b5034610146576020366003190112610146576114d860406114ec9260608280516114be81611899565b828152826020820152015260043581528060205220611906565b6040519182916020835260208301906119a0565b0390f35b503461014657602036600319011261014657600435815260056020526040902080546001600160a01b031661152760028301611906565b916040516115438161153c8160058601611803565b03826118e5565b6040519161155f836115588160068501611803565b03846118e5565b60078101549260088201546009830154906115c1600a850154936115b3600c600b880154970154976115a56040519c8d809d6020610140928392815201528d01906119a0565b908b820360408d015261197b565b9089820360608b015261197b565b95608088015260a087015260c086015260e08501526101008401526101208301520390f35b5034610146576020366003190112610146576001600160a01b03611608611783565b16815260016020526040812054801561168b5781528060205261162e60408220546117c9565b156116365780f35b60405162461bcd60e51b815260206004820152602760248201527f41413a414f562d536f7572636520696d616765206d7573742062652077686974604482015266195b1a5cdd195960ca1b6064820152608490fd5b60405162461bcd60e51b815260206004820152602360248201527f41413a414f562d456e636c617665206b6579206d7573742062652076657269666044820152621a595960ea1b6064820152608490fd5b50346101465760203660031901126101465760043563ffffffff60e01b811680910361046e57602090635a05180f60e01b8114908115611722575b506040519015158152f35b637965db0b60e01b81149150811561173c575b5082611717565b6301ffc9a760e01b14905082611735565b90503461046e57602036600319011261046e576020916040906001600160a01b03611776611783565b1681526001845220548152f35b600435906001600160a01b038216820361179957565b600080fd5b602435906001600160a01b038216820361179957565b35906001600160e01b03198216820361179957565b90600182811c921680156117f9575b60208310146117e357565b634e487b7160e01b600052602260045260246000fd5b91607f16916117d8565b805460009392611812826117c9565b9182825260209360019160018116908160001461187a5750600114611839575b5050505050565b90939495506000929192528360002092846000945b83861061186657505050500101903880808080611832565b80548587018301529401938590820161184e565b60ff19168685015250505090151560051b010191503880808080611832565b606081019081106001600160401b038211176118b457604052565b634e487b7160e01b600052604160045260246000fd5b608081019081106001600160401b038211176118b457604052565b90601f801991011681019081106001600160401b038211176118b457604052565b9060026040805161191681611899565b6119548195835161192b8161153c8185611803565b835283516119408161153c8160018601611803565b602084015261155884518096819301611803565b0152565b60005b83811061196b5750506000910152565b818101518382015260200161195b565b9060209161199481518092818552858086019101611958565b601f01601f1916010190565b6119df9160406119ce6119bc845160608552606085019061197b565b6020850151848203602086015261197b565b92015190604081840391015261197b565b90565b6001600160401b0381116118b457601f01601f191660200190565b929192611a09826119e2565b91611a1760405193846118e5565b829481845281830111611799578281602093846000960137010152565b9080601f83011215611799578160206119df933591016119fd565b91906060838203126117995760405190611a6882611899565b81938035916001600160401b03928381116117995781611a89918401611a34565b845260208201358381116117995781611aa3918401611a34565b6020850152604082013592831161179957604092611ac19201611a34565b910152565b8054821015611ade5760005260206000200190600090565b634e487b7160e01b600052603260045260246000fd5b6119df939260609282526020820152816040820152019061197b565b3d15611b3b573d90611b21826119e2565b91611b2f60405193846118e5565b82523d6000602084013e565b606090565b90816020910312611799575180151581036117995790565b91908203918211611b6557565b634e487b7160e01b600052601160045260246000fd5b9091939293600082815260209360058552604092838320976006611ba88a61153c88518094819301611803565b8551968888019760808952611c55611c4d611bdb611bc960a085018a61197b565b601f199687868303018d87015261197b565b9584606085015260018060a01b039b84611c068e96878c169a8b6080830152038981018352826118e5565b5190208d8c51908101917f19457468657265756d205369676e6564204d6573736167653a0a3332000000008352603c820152603c8152611c4581611899565b519020612999565b9190916129d1565b16801561203157865260019160018a52878720548015611fe1578752868a52611c80888820546117c9565b15611f8d5760018c019087845b611e6a575b5050505050600789019283549360088b01611cae815442611b58565b95868102968188041490151715611e5657899a9b899a602498999a600654168b51998a80926370a0823160e01b82523060048301525afa978815611e4c578998611e1c575b50600c018887825411600014611e155750611d0f878254611b58565b90555b4290557fb83e4a67d65f51cc4cf00459065d69ff3ed35a7ba7f9062ab631bbe8cb24c8fa60045491548951908152898c82015280611d5433958c83019061197b565b0390a48215611e0c57869282811115611dd35750600654855163a9059cbb60e01b81526001600160a01b039092166004830152602482019290925294859116818481604481015b03925af1918215611dc9575050611db0575050565b81611dc692903d10610fed57610fde81836118e5565b50565b51903d90823e3d90fd5b600654865163a9059cbb60e01b81526001600160a01b039093166004840152602483019190915290958692501681848160448101611d9b565b50505050505050565b9055611d12565b9097508b81813d8311611e45575b611e3481836118e5565b810103126110ed575196600c611cf3565b503d611e2a565b8a513d8b823e3d90fd5b634e487b7160e01b87526011600452602487fd5b8b89898d8d8754861015611f8357838093611ecc8b97611ec0611e9c8b8e98611e93828b611ac6565b50541698611ac6565b5063ffffffff60e01b9054871b16955193849283019687528b60249b8c8501611af4565b038a81018352826118e5565b51925af1611ed8611b10565b9015611f4057808e80611ef093518301019101611b40565b15611efe5750840184611c8d565b8c60176064928d519262461bcd60e51b845260048401528201527f56616c69646174696f6e20636865636b206661696c65640000000000000000006044820152fd5b8b5162461bcd60e51b8152600481018f90526018818401527f56616c69646174696f6e2063616c6c20726576657274656400000000000000006044820152606490fd5b5050505050611c92565b875162461bcd60e51b8152600481018b9052602760248201527f41413a414f562d536f7572636520696d616765206d7573742062652077686974604482015266195b1a5cdd195960ca1b6064820152608490fd5b885162461bcd60e51b8152600481018c9052602360248201527f41413a414f562d456e636c617665206b6579206d7573742062652076657269666044820152621a595960ea1b6064820152608490fd5b875162461bcd60e51b8152600481018b9052601960248201527f496e76616c696420656e636c617665207369676e6174757265000000000000006044820152606490fd5b90601f811161208357505050565b6000916000526020600020906020601f850160051c830194106120c1575b601f0160051c01915b8281106120b657505050565b8181556001016120aa565b90925082906120a1565b815180516001600160401b03918282116118b4576120f3826120ed86546117c9565b86612075565b602090601f83116001146122b2576121249291600091836121d9575b50508160011b916000199060031b1c19161790565b82555b60019182810160208501518051908482116118b4576121508261214a85546117c9565b85612075565b602090601f831160011461224457826040959360029593612187936000926121d95750508160011b916000199060031b1c19161790565b90555b0193015180519182116118b4576121a5826120ed86546117c9565b602092601f83116001146121e457506121d592600091836121d95750508160011b916000199060031b1c19161790565b9055565b01519050388061210f565b92601f198316918560005283826000209360005b8782821061222b57505010612212575b505050811b019055565b015160001960f88460031b161c19169055388080612208565b84860151875590950194602094850194879350016121f8565b869291601f1983169185600052816000209260005b81811061229a57509160409795939185600298969410612281575b505050811b01905561218a565b015160001960f88460031b161c19169055388080612274565b8284015185558a969094019360209384019301612259565b90601f1983169185600052816000209260005b81811061230157509084600195949392106122e8575b505050811b018255612127565b015160001960f88460031b161c191690553880806122db565b929360206001819287860151815501950193016122c5565b8051821015611ade5760209160051b010190565b3360009081527fac33ff75c19e70fe83507db0d683fd3465c996598dc972688b7ace676c89077b602090815260408083205490929060ff161561236f57505050565b6123783361274d565b9080845190612386826118ca565b604282528482019260603685378251156125145760308453825190600191600110156125145790607860218501536041915b8183116124a65750505061246457604861246093869361244493612435985198899376020b1b1b2b9b9a1b7b73a3937b61d1030b1b1b7bab73a1604d1b8a86015261240c815180928c603789019101611958565b8401917001034b99036b4b9b9b4b733903937b6329607d1b603784015251809386840190611958565b010360288101875201856118e5565b5192839262461bcd60e51b84526004840152602483019061197b565b0390fd5b60648486519062461bcd60e51b825280600483015260248201527f537472696e67733a20686578206c656e67746820696e73756666696369656e746044820152fd5b909192600f81166010811015612500576f181899199a1a9b1b9c1cb0b131b232b360811b901a6124d6858761273c565b5360041c9280156124ec576000190191906123b8565b634e487b7160e01b82526011600452602482fd5b634e487b7160e01b83526032600452602483fd5b634e487b7160e01b81526032600452602490fd5b60009080825260209060028252604092838120338252835260ff8482205416156125525750505050565b61255b3361274d565b91845190612568826118ca565b604282528482019260603685378251156125145760308453825190600191600110156125145790607860218501536041915b8183116125ee5750505061246457604861246093869361244493612435985198899376020b1b1b2b9b9a1b7b73a3937b61d1030b1b1b7bab73a1604d1b8a86015261240c815180928c603789019101611958565b909192600f81166010811015612500576f181899199a1a9b1b9c1cb0b131b232b360811b901a61261e858761273c565b5360041c9280156124ec5760001901919061259a565b906040611dc69260009080825260026020528282209360018060a01b03169384835260205260ff8383205416612672575b81526003602052206128bd565b808252600260205282822084835260205282822060ff1981541690553384827ff6391f5c32d9c69d2a47ea670b442974b53935d1edc7fd64eb21e047a839171b8580a4612665565b6126d290602060405192828480945193849201611958565b810103902090565b60408151036126f75780516020909101206001600160a01b031690565b60405162461bcd60e51b815260206004820152601960248201527f496e76616c6964207075626c6963206b6579206c656e677468000000000000006044820152606490fd5b908151811015611ade570160200190565b6040519061275a82611899565b602a8252602082016040368237825115611ade5760309053815160019060011015611ade57607860218401536029905b8082116127de57505061279a5790565b606460405162461bcd60e51b815260206004820152602060248201527f537472696e67733a20686578206c656e67746820696e73756666696369656e746044820152fd5b9091600f81166010811015612837576f181899199a1a9b1b9c1cb0b131b232b360811b901a61280d848661273c565b5360041c91801561282257600019019061278a565b60246000634e487b7160e01b81526011600452fd5b60246000634e487b7160e01b81526032600452fd5b919060018301600090828252806020526040822054156000146128b757845494600160401b8610156110f557836128a7612890886001604098999a01855584611ac6565b819391549060031b91821b91600019901b19161790565b9055549382526020522055600190565b50925050565b906001820190600092818452826020526040842054908115156000146129925760001991808301818111611e565782549084820191821161297e57808203612949575b50505080548015612935578201916129188383611ac6565b909182549160031b1b191690555582526020526040812055600190565b634e487b7160e01b86526031600452602486fd5b6129696129596128909386611ac6565b90549060031b1c92839286611ac6565b90558652846020526040862055388080612900565b634e487b7160e01b88526011600452602488fd5b5050505090565b9060418151146000146129c7576129c3916020820151906060604084015193015160001a90612aeb565b9091565b5050600090600290565b6005811015612ad557806129e25750565b60018103612a2f5760405162461bcd60e51b815260206004820152601860248201527f45434453413a20696e76616c6964207369676e617475726500000000000000006044820152606490fd5b60028103612a7c5760405162461bcd60e51b815260206004820152601f60248201527f45434453413a20696e76616c6964207369676e6174757265206c656e677468006044820152606490fd5b600314612a8557565b60405162461bcd60e51b815260206004820152602260248201527f45434453413a20696e76616c6964207369676e6174757265202773272076616c604482015261756560f01b6064820152608490fd5b634e487b7160e01b600052602160045260246000fd5b9291907f7fffffffffffffffffffffffffffffff5d576e7357a4501ddfe92f46681b20a08311612b6e5791608094939160ff602094604051948552168484015260408301526060820152600093849182805260015afa15612b615781516001600160a01b03811615612b5b579190565b50600190565b50604051903d90823e3d90fd5b5050505060009060039056fea2646970667358221220dac59caae5c834665e557d4e9e2cd9ea63afc4cc239fb745906c41f52cf3175564736f6c6343000818003352b29bbdd97ab983419f50fa1590e5ab75e9942279e95e10a08607b06c23238bac33ff75c19e70fe83507db0d683fd3465c996598dc972688b7ace676c89077b3617319a054d772f909f7c479a2cebe5066e836a939412e32403c99029b92eff",
    "linkReferences": {}
  },
  "methodIdentifiers": {
    "ATTESTATION_MAX_AGE()": "9aec990e",
    "ATTESTATION_VERIFIER()": "cd79f906",
    "DEFAULT_ADMIN_ROLE()": "a217fddf",
    "createJob((address,bytes4,bytes4,bytes)[],string,(bytes,bytes,bytes),bytes,uint256,uint256,uint256,uint256,uint256)": "a7b39a15",
    "executeJob(uint256,bytes,address,bytes)": "a0ab4f2f",
    "getRoleAdmin(bytes32)": "248a9ca3",
    "getRoleMember(bytes32,uint256)": "9010d07c",
    "getRoleMemberCount(bytes32)": "ca15c873",
    "getVerifiedKey(address)": "01d58fa3",
    "getWhitelistedImage(bytes32)": "2410f6ba",
    "grantRole(bytes32,address)": "2f2ff15d",
    "hasRole(bytes32,address)": "91d14854",
    "isEnclaveKeyValid(address)": "122748ab",
    "jobCount()": "4c5d8a0f",
    "jobs(uint256)": "180aedf3",
    "renounceRole(bytes32,address)": "36568abe",
    "revokeRole(bytes32,address)": "d547741f",
    "supportsInterface(bytes4)": "01ffc9a7",
    "token()": "fc0c546a",
    "updateToken(address)": "7ad3def2",
    "verifyKey(bytes,bytes,bytes32,uint256,uint256,uint256)": "fb94db2b",
    "whitelistEnclaveImage((bytes,bytes,bytes))": "dec8e4dd",
    "whitelistEnclaveKey(bytes,bytes32)": "debf726b"
  },
  "id": 31
}