{
  "abi": [
    {
      "type": "constructor",
      "inputs": [
        {
          "name": "_token",
          "type": "address",
          "internalType": "address"
        },
        {
          "name": "_verifier",
          "type": "address",
          "internalType": "address"
        },
        {
          "name": "_admin",
          "type": "address",
          "internalType": "address"
        },
        {
          "name": "_maxAge",
          "type": "uint256",
          "internalType": "uint256"
        }
      ],
      "stateMutability": "nonpayable"
    },
    {
      "type": "function",
      "name": "ATTESTATION_MAX_AGE",
      "inputs": [],
      "outputs": [
        {
          "name": "",
          "type": "uint256",
          "internalType": "uint256"
        }
      ],
      "stateMutability": "view"
    },
    {
      "type": "function",
      "name": "ATTESTATION_VERIFIER",
      "inputs": [],
      "outputs": [
        {
          "name": "",
          "type": "address",
          "internalType": "contract IAttestationVerifier"
        }
      ],
      "stateMutability": "view"
    },
    {
      "type": "function",
      "name": "DEFAULT_ADMIN_ROLE",
      "inputs": [],
      "outputs": [
        {
          "name": "",
          "type": "bytes32",
          "internalType": "bytes32"
        }
      ],
      "stateMutability": "view"
    },
    {
      "type": "function",
      "name": "createJob",
      "inputs": [
        {
          "name": "_validations",
          "type": "tuple[]",
          "internalType": "struct IJobManager.ValidationSetup[]",
          "components": [
            {
              "name": "validationAddress",
              "type": "address",
              "internalType": "address"
            },
            {
              "name": "validationFunction",
              "type": "bytes4",
              "internalType": "bytes4"
            },
            {
              "name": "initializerFunction",
              "type": "bytes4",
              "internalType": "bytes4"
            },
            {
              "name": "initializerData",
              "type": "bytes",
              "internalType": "bytes"
            }
          ]
        },
        {
          "name": "_enclave_url",
          "type": "string",
          "internalType": "string"
        },
        {
          "name": "_pcrs",
          "type": "tuple",
          "internalType": "struct IJobManager.Image",
          "components": [
            {
              "name": "PCR0",
              "type": "bytes",
              "internalType": "bytes"
            },
            {
              "name": "PCR1",
              "type": "bytes",
              "internalType": "bytes"
            },
            {
              "name": "PCR2",
              "type": "bytes",
              "internalType": "bytes"
            }
          ]
        },
        {
          "name": "_input",
          "type": "bytes",
          "internalType": "bytes"
        },
        {
          "name": "_paymentPerSecond",
          "type": "uint256",
          "internalType": "uint256"
        },
        {
          "name": "_maxBaseFee",
          "type": "uint256",
          "internalType": "uint256"
        },
        {
          "name": "_maxPriorityFee",
          "type": "uint256",
          "internalType": "uint256"
        },
        {
          "name": "_gasRefundAmount",
          "type": "uint256",
          "internalType": "uint256"
        },
        {
          "name": "_amount",
          "type": "uint256",
          "internalType": "uint256"
        }
      ],
      "outputs": [
        {
          "name": "",
          "type": "uint256",
          "internalType": "uint256"
        }
      ],
      "stateMutability": "payable"
    },
    {
      "type": "function",
      "name": "executeJob",
      "inputs": [
        {
          "name": "jobId",
          "type": "uint256",
          "internalType": "uint256"
        },
        {
          "name": "data",
          "type": "bytes",
          "internalType": "bytes"
        },
        {
          "name": "rewardAddress",
          "type": "address",
          "internalType": "address"
        },
        {
          "name": "attestation",
          "type": "bytes",
          "internalType": "bytes"
        }
      ],
      "outputs": [],
      "stateMutability": "nonpayable"
    },
    {
      "type": "function",
      "name": "getRoleAdmin",
      "inputs": [
        {
          "name": "role",
          "type": "bytes32",
          "internalType": "bytes32"
        }
      ],
      "outputs": [
        {
          "name": "",
          "type": "bytes32",
          "internalType": "bytes32"
        }
      ],
      "stateMutability": "view"
    },
    {
      "type": "function",
      "name": "getRoleMember",
      "inputs": [
        {
          "name": "role",
          "type": "bytes32",
          "internalType": "bytes32"
        },
        {
          "name": "index",
          "type": "uint256",
          "internalType": "uint256"
        }
      ],
      "outputs": [
        {
          "name": "",
          "type": "address",
          "internalType": "address"
        }
      ],
      "stateMutability": "view"
    },
    {
      "type": "function",
      "name": "getRoleMemberCount",
      "inputs": [
        {
          "name": "role",
          "type": "bytes32",
          "internalType": "bytes32"
        }
      ],
      "outputs": [
        {
          "name": "",
          "type": "uint256",
          "internalType": "uint256"
        }
      ],
      "stateMutability": "view"
    },
    {
      "type": "function",
      "name": "getVerifiedKey",
      "inputs": [
        {
          "name": "_key",
          "type": "address",
          "internalType": "address"
        }
      ],
      "outputs": [
        {
          "name": "",
          "type": "bytes32",
          "internalType": "bytes32"
        }
      ],
      "stateMutability": "view"
    },
    {
      "type": "function",
      "name": "getWhitelistedImage",
      "inputs": [
        {
          "name": "_imageId",
          "type": "bytes32",
          "internalType": "bytes32"
        }
      ],
      "outputs": [
        {
          "name": "",
          "type": "tuple",
          "internalType": "struct AttestationAuther.EnclaveImage",
          "components": [
            {
              "name": "PCR0",
              "type": "bytes",
              "internalType": "bytes"
            },
            {
              "name": "PCR1",
              "type": "bytes",
              "internalType": "bytes"
            },
            {
              "name": "PCR2",
              "type": "bytes",
              "internalType": "bytes"
            }
          ]
        }
      ],
      "stateMutability": "view"
    },
    {
      "type": "function",
      "name": "grantRole",
      "inputs": [
        {
          "name": "role",
          "type": "bytes32",
          "internalType": "bytes32"
        },
        {
          "name": "account",
          "type": "address",
          "internalType": "address"
        }
      ],
      "outputs": [],
      "stateMutability": "nonpayable"
    },
    {
      "type": "function",
      "name": "hasRole",
      "inputs": [
        {
          "name": "role",
          "type": "bytes32",
          "internalType": "bytes32"
        },
        {
          "name": "account",
          "type": "address",
          "internalType": "address"
        }
      ],
      "outputs": [
        {
          "name": "",
          "type": "bool",
          "internalType": "bool"
        }
      ],
      "stateMutability": "view"
    },
    {
      "type": "function",
      "name": "isEnclaveKeyValid",
      "inputs": [
        {
          "name": "key",
          "type": "address",
          "internalType": "address"
        }
      ],
      "outputs": [],
      "stateMutability": "view"
    },
    {
      "type": "function",
      "name": "jobCount",
      "inputs": [],
      "outputs": [
        {
          "name": "",
          "type": "uint256",
          "internalType": "uint256"
        }
      ],
      "stateMutability": "view"
    },
    {
      "type": "function",
      "name": "jobs",
      "inputs": [
        {
          "name": "",
          "type": "uint256",
          "internalType": "uint256"
        }
      ],
      "outputs": [
        {
          "name": "creator",
          "type": "address",
          "internalType": "address"
        },
        {
          "name": "image",
          "type": "tuple",
          "internalType": "struct IJobManager.Image",
          "components": [
            {
              "name": "PCR0",
              "type": "bytes",
              "internalType": "bytes"
            },
            {
              "name": "PCR1",
              "type": "bytes",
              "internalType": "bytes"
            },
            {
              "name": "PCR2",
              "type": "bytes",
              "internalType": "bytes"
            }
          ]
        },
        {
          "name": "enclave_url",
          "type": "string",
          "internalType": "string"
        },
        {
          "name": "input",
          "type": "bytes",
          "internalType": "bytes"
        },
        {
          "name": "paymentPerSecond",
          "type": "uint256",
          "internalType": "uint256"
        },
        {
          "name": "lastExecutionTime",
          "type": "uint256",
          "internalType": "uint256"
        },
        {
          "name": "maxBaseFee",
          "type": "uint256",
          "internalType": "uint256"
        },
        {
          "name": "maxPriorityFee",
          "type": "uint256",
          "internalType": "uint256"
        },
        {
          "name": "gasRefundAmount",
          "type": "uint256",
          "internalType": "uint256"
        },
        {
          "name": "amount",
          "type": "uint256",
          "internalType": "uint256"
        }
      ],
      "stateMutability": "view"
    },
    {
      "type": "function",
      "name": "renounceRole",
      "inputs": [
        {
          "name": "role",
          "type": "bytes32",
          "internalType": "bytes32"
        },
        {
          "name": "account",
          "type": "address",
          "internalType": "address"
        }
      ],
      "outputs": [],
      "stateMutability": "nonpayable"
    },
    {
      "type": "function",
      "name": "revokeRole",
      "inputs": [
        {
          "name": "role",
          "type": "bytes32",
          "internalType": "bytes32"
        },
        {
          "name": "account",
          "type": "address",
          "internalType": "address"
        }
      ],
      "outputs": [],
      "stateMutability": "nonpayable"
    },
    {
      "type": "function",
      "name": "supportsInterface",
      "inputs": [
        {
          "name": "interfaceId",
          "type": "bytes4",
          "internalType": "bytes4"
        }
      ],
      "outputs": [
        {
          "name": "",
          "type": "bool",
          "internalType": "bool"
        }
      ],
      "stateMutability": "view"
    },
    {
      "type": "function",
      "name": "token",
      "inputs": [],
      "outputs": [
        {
          "name": "",
          "type": "address",
          "internalType": "contract IERC20"
        }
      ],
      "stateMutability": "view"
    },
    {
      "type": "function",
      "name": "updateToken",
      "inputs": [
        {
          "name": "_token",
          "type": "address",
          "internalType": "address"
        }
      ],
      "outputs": [],
      "stateMutability": "nonpayable"
    },
    {
      "type": "function",
      "name": "verifyKey",
      "inputs": [
        {
          "name": "signature",
          "type": "bytes",
          "internalType": "bytes"
        },
        {
          "name": "enclavePubKey",
          "type": "bytes",
          "internalType": "bytes"
        },
        {
          "name": "imageId",
          "type": "bytes32",
          "internalType": "bytes32"
        },
        {
          "name": "enclaveCPUs",
          "type": "uint256",
          "internalType": "uint256"
        },
        {
          "name": "enclaveMemory",
          "type": "uint256",
          "internalType": "uint256"
        },
        {
          "name": "timestampInMilliseconds",
          "type": "uint256",
          "internalType": "uint256"
        }
      ],
      "outputs": [],
      "stateMutability": "nonpayable"
    },
    {
      "type": "function",
      "name": "whitelistEnclaveImage",
      "inputs": [
        {
          "name": "image",
          "type": "tuple",
          "internalType": "struct AttestationAuther.EnclaveImage",
          "components": [
            {
              "name": "PCR0",
              "type": "bytes",
              "internalType": "bytes"
            },
            {
              "name": "PCR1",
              "type": "bytes",
              "internalType": "bytes"
            },
            {
              "name": "PCR2",
              "type": "bytes",
              "internalType": "bytes"
            }
          ]
        }
      ],
      "outputs": [],
      "stateMutability": "nonpayable"
    },
    {
      "type": "function",
      "name": "whitelistEnclaveKey",
      "inputs": [
        {
          "name": "enclavePubKey",
          "type": "bytes",
          "internalType": "bytes"
        },
        {
          "name": "imageId",
          "type": "bytes32",
          "internalType": "bytes32"
        }
      ],
      "outputs": [],
      "stateMutability": "nonpayable"
    },
    {
      "type": "event",
      "name": "EnclaveImageRevoked",
      "inputs": [
        {
          "name": "imageId",
          "type": "bytes32",
          "indexed": true,
          "internalType": "bytes32"
        }
      ],
      "anonymous": false
    },
    {
      "type": "event",
      "name": "EnclaveImageWhitelisted",
      "inputs": [
        {
          "name": "imageId",
          "type": "bytes32",
          "indexed": true,
          "internalType": "bytes32"
        },
        {
          "name": "PCR0",
          "type": "bytes",
          "indexed": false,
          "internalType": "bytes"
        },
        {
          "name": "PCR1",
          "type": "bytes",
          "indexed": false,
          "internalType": "bytes"
        },
        {
          "name": "PCR2",
          "type": "bytes",
          "indexed": false,
          "internalType": "bytes"
        }
      ],
      "anonymous": false
    },
    {
      "type": "event",
      "name": "EnclaveKeyRevoked",
      "inputs": [
        {
          "name": "enclavePubKey",
          "type": "bytes",
          "indexed": true,
          "internalType": "bytes"
        }
      ],
      "anonymous": false
    },
    {
      "type": "event",
      "name": "EnclaveKeyVerified",
      "inputs": [
        {
          "name": "enclavePubKey",
          "type": "bytes",
          "indexed": true,
          "internalType": "bytes"
        },
        {
          "name": "imageId",
          "type": "bytes32",
          "indexed": true,
          "internalType": "bytes32"
        }
      ],
      "anonymous": false
    },
    {
      "type": "event",
      "name": "EnclaveKeyWhitelisted",
      "inputs": [
        {
          "name": "enclavePubKey",
          "type": "bytes",
          "indexed": true,
          "internalType": "bytes"
        },
        {
          "name": "imageId",
          "type": "bytes32",
          "indexed": true,
          "internalType": "bytes32"
        }
      ],
      "anonymous": false
    },
    {
      "type": "event",
      "name": "JobCreated",
      "inputs": [
        {
          "name": "jobId",
          "type": "uint256",
          "indexed": true,
          "internalType": "uint256"
        },
        {
          "name": "enclaveUrl",
          "type": "string",
          "indexed": false,
          "internalType": "string"
        },
        {
          "name": "input",
          "type": "bytes",
          "indexed": false,
          "internalType": "bytes"
        },
        {
          "name": "creator",
          "type": "address",
          "indexed": true,
          "internalType": "address"
        },
        {
          "name": "validations",
          "type": "tuple[]",
          "indexed": false,
          "internalType": "struct JobManager.Validation[]",
          "components": [
            {
              "name": "validationAddress",
              "type": "address",
              "internalType": "address"
            },
            {
              "name": "validationFunction",
              "type": "bytes4",
              "internalType": "bytes4"
            }
          ]
        },
        {
          "name": "paymentPerSecond",
          "type": "uint256",
          "indexed": false,
          "internalType": "uint256"
        },
        {
          "name": "maxBaseFee",
          "type": "uint256",
          "indexed": false,
          "internalType": "uint256"
        },
        {
          "name": "maxPriorityFee",
          "type": "uint256",
          "indexed": false,
          "internalType": "uint256"
        },
        {
          "name": "gasRefundAmount",
          "type": "uint256",
          "indexed": false,
          "internalType": "uint256"
        },
        {
          "name": "amount",
          "type": "uint256",
          "indexed": false,
          "internalType": "uint256"
        }
      ],
      "anonymous": false
    },
    {
      "type": "event",
      "name": "JobExecuted",
      "inputs": [
        {
          "name": "jobId",
          "type": "uint256",
          "indexed": true,
          "internalType": "uint256"
        },
        {
          "name": "executor",
          "type": "address",
          "indexed": true,
          "internalType": "address"
        },
        {
          "name": "rewardAddress",
          "type": "address",
          "indexed": true,
          "internalType": "address"
        },
        {
          "name": "payment",
          "type": "uint256",
          "indexed": false,
          "internalType": "uint256"
        },
        {
          "name": "data",
          "type": "bytes",
          "indexed": false,
          "internalType": "bytes"
        }
      ],
      "anonymous": false
    },
    {
      "type": "event",
      "name": "RoleAdminChanged",
      "inputs": [
        {
          "name": "role",
          "type": "bytes32",
          "indexed": true,
          "internalType": "bytes32"
        },
        {
          "name": "previousAdminRole",
          "type": "bytes32",
          "indexed": true,
          "internalType": "bytes32"
        },
        {
          "name": "newAdminRole",
          "type": "bytes32",
          "indexed": true,
          "internalType": "bytes32"
        }
      ],
      "anonymous": false
    },
    {
      "type": "event",
      "name": "RoleGranted",
      "inputs": [
        {
          "name": "role",
          "type": "bytes32",
          "indexed": true,
          "internalType": "bytes32"
        },
        {
          "name": "account",
          "type": "address",
          "indexed": true,
          "internalType": "address"
        },
        {
          "name": "sender",
          "type": "address",
          "indexed": true,
          "internalType": "address"
        }
      ],
      "anonymous": false
    },
    {
      "type": "event",
      "name": "RoleRevoked",
      "inputs": [
        {
          "name": "role",
          "type": "bytes32",
          "indexed": true,
          "internalType": "bytes32"
        },
        {
          "name": "account",
          "type": "address",
          "indexed": true,
          "internalType": "address"
        },
        {
          "name": "sender",
          "type": "address",
          "indexed": true,
          "internalType": "address"
        }
      ],
      "anonymous": false
    },
    {
      "type": "event",
      "name": "TokenUpdated",
      "inputs": [
        {
          "name": "token",
          "type": "address",
          "indexed": true,
          "internalType": "address"
        }
      ],
      "anonymous": false
    },
    {
      "type": "event",
      "name": "VerifierUpdated",
      "inputs": [
        {
          "name": "verifier",
          "type": "address",
          "indexed": true,
          "internalType": "address"
        }
      ],
      "anonymous": false
    }
  ],
  "bytecode": {
    "object": "0x60c0806040523462000863576080816200395f803803809162000023828562000868565b833981010312620008635762000039816200088c565b9062000048602082016200088c565b90606062000059604083016200088c565b91015160405192602084016001600160401b0381118582101762000408576040526000845260018060a01b031660805260a05260005b82518110156200066d5760208160051b840101516030808251511490816200065d575b816200064d575b5015620005fe578051602082015162000127602060408501519260405193849183620000ef8185019889815193849201620008a1565b83016200010582518093878085019101620008a1565b016200011a82518093868085019101620008a1565b0103808452018262000868565b5190209081600052600060205262000144604060002054620008c6565b620005b957805160208201516040830151906040519283606081011060018060401b03606086011117620004085760608401604052835260208301526040820152826000526000602052604060002090805180519060018060401b03821162000408578190620001b58554620008c6565b601f811162000564575b50602090601f8311600114620004fa57600092620004ee575b50508160011b916000199060031b1c19161782555b60208101518051906001600160401b0382116200040857620002136001850154620008c6565b601f8111620004a2575b50602090601f83116001146200042a576040939291600091836200041e575b50508160011b916000199060031b1c19161760018401555b01518051906001600160401b0382116200040857620002776002840154620008c6565b601f8111620003bc575b50602090601f83116001146200032e5792600283620002fa94600199989794600080516020620038ff8339815191529760009262000322575b5050600019600383901b1c191690891b179101555b6200031881519162000309604060208301519201519160405195869560608752606087019062000903565b90858203602087015262000903565b90838203604085015262000903565b0390a2016200008f565b015190503880620002ba565b906002840160005260206000209160005b601f1985168110620003a357506001848199989794600080516020620038ff8339815191529794600294620002fa98601f1981161062000389575b505050811b01910155620002cf565b015160001960f88460031b161c191690553880806200037a565b919260206001819286850151815501940192016200033f565b600284016000526020600020601f840160051c81016020851062000400575b601f830160051c82018110620003f357505062000281565b60008155600101620003db565b5080620003db565b634e487b7160e01b600052604160045260246000fd5b0151905038806200023c565b906001850160005260206000209160005b601f198516811062000489575091839160019360409695601f198116106200046f575b505050811b01600184015562000254565b015160001960f88460031b161c191690553880806200045e565b919260206001819286850151815501940192016200043b565b600185016000526020600020601f840160051c810160208510620004e6575b601f830160051c82018110620004d95750506200021d565b60008155600101620004c1565b5080620004c1565b015190503880620001d8565b60008681526020812093505b601f19851681106200054b575083601f1981161062000531575b505050600190811b018255620001ed565b015160001960f88460031b161c1916905538808062000520565b9192602060018192868501518155019401920162000506565b909150846000526020600020601f840160051c810160208510620005b1575b90849392915b601f830160051c82018110620005a1575050620001bf565b6000815585945060010162000589565b508062000583565b60405162461bcd60e51b815260206004820152601f60248201527f41413a57492d696d61676520616c72656164792077686974656c6973746564006044820152606490fd5b60405162461bcd60e51b815260206004820152602160248201527f41413a57492d5043522076616c756573206d75737420626520343820627974656044820152607360f81b6064820152608490fd5b90506040820151511438620000b9565b60208301515181149150620000b2565b506001600160a01b0383169081156200082e57600680546001600160a01b0319168317905562000757917f5ba6b30cd4b2f9e9e67f4feb9b9df10d5da3b057598e6901b217b7d590345e30600080a23360009081526000805160206200391f833981519152602052604090205460ff16620007dd575b60008052600360205262000707336000805160206200393f83398151915262000959565b506001600160a01b031660008181526000805160206200391f833981519152602052604090205460ff161562000788575b6000805260036020526000805160206200393f83398151915262000a6d565b50604051612e19908162000ae6823960805181818161022e0152610832015260a0518181816101e501526111a60152f35b60008181526000805160206200391f83398151915260205260408120805460ff19166001179055339082907f2f8788117e7eff1d82e926ec794901d17c78024a50270940304540a733656f0d8180a462000738565b3360008181526000805160206200391f83398151915260205260408120805460ff1916905581907ff6391f5c32d9c69d2a47ea670b442974b53935d1edc7fd64eb21e047a839171b8180a4620006e3565b60405162461bcd60e51b815260206004820152600d60248201526c24b73b30b634b2103a37b5b2b760991b6044820152606490fd5b600080fd5b601f909101601f19168101906001600160401b038211908210176200040857604052565b51906001600160a01b03821682036200086357565b60005b838110620008b55750506000910152565b8181015183820152602001620008a4565b90600182811c92168015620008f8575b6020831014620008e257565b634e487b7160e01b600052602260045260246000fd5b91607f1691620008d6565b906020916200091e81518092818552858086019101620008a1565b601f01601f1916010190565b8054821015620009435760005260206000200190600090565b634e487b7160e01b600052603260045260246000fd5b9060018201906000928184528260205260408420549081151560001462000a66576000199180830181811162000a525782549084820191821162000a3e57808203620009ec575b50505080548015620009d857820191620009bb83836200092a565b909182549160031b1b191690555582526020526040812055600190565b634e487b7160e01b86526031600452602486fd5b62000a2862000a0062000a1193866200092a565b90549060031b1c928392866200092a565b819391549060031b91821b91600019901b19161790565b90558652846020526040862055388080620009a0565b634e487b7160e01b88526011600452602488fd5b634e487b7160e01b87526011600452602487fd5b5050505090565b9190600183016000908282528060205260408220541560001462000adf578454946801000000000000000086101562000acb578362000abb62000a11886001604098999a018555846200092a565b9055549382526020522055600190565b634e487b7160e01b83526041600452602483fd5b5092505056fe608080604052600436101561001357600080fd5b600090813560e01c90816301d58fa3146117b25750806301ffc9a714611741578063122748ab146115e6578063180aedf3146114f05780632410f6ba14611495578063248a9ca3146114685780632f2ff15d146113a857806336568abe146113155780634c5d8a0f146112f75780637ad3def2146112585780639010d07c1461121257806391d14854146111c95780639aec990e1461118e578063a0ab4f2f14611125578063a217fddf14611109578063a7b39a151461088b578063ca15c87314610861578063cd79f9061461081c578063d547741f146107db578063debf726b1461068f578063dec8e4dd14610472578063fb94db2b146101495763fc0c546a1461011e57600080fd5b346101465780600319360112610146576006546040516001600160a01b039091168152602090f35b80fd5b50346101465760031960c03682011261046e576001600160401b0360043581811161046a5761017c903690600401611ab4565b90602492833582811161046657610197903690600401611ab4565b926044359460a435938688526020948886526101b660408a205461182e565b1561040c576001600160a01b0393846101ce89612943565b1695868b526001885260408b20546103bd5761020a7f000000000000000000000000000000000000000000000000000000000000000042611c00565b6103e88404111561037957908a92918a845283895261022b60408520611986565b967f0000000000000000000000000000000000000000000000000000000000000000169187519360408b8a0151990151843b15610375578c936040519a8b978896879663ac0f0bd560e01b8852600488016101009052610104880161028f916119fb565b8781038501888f01526102a1916119fb565b838782030160448801526102b4916119fb565b828682030160648701526102c7916119fb565b908482030160848501526102da916119fb565b9060643560a484015260843560c484015260e483015203915afa801561036a5761033f575b50505061031892916001918652528260408520556128a5565b7ff4837f1a66a1e5fbde2c40d0f6eff75183139e79b0fc1eaab280a3a0be38e7b18380a380f35b82979397116103585750604052938160016103186102ff565b634e487b7160e01b8352604160045282fd5b6040513d8a823e3d90fd5b8680fd5b60405162461bcd60e51b8152600481018990526019818701527f41413a564b2d4174746573746174696f6e20746f6f206f6c64000000000000006044820152606490fd5b60405162461bcd60e51b8152600481018990526022818701527f41413a564b2d456e636c617665206b657920616c726561647920766572696669604482015261195960f21b6064820152608490fd5b60405162461bcd60e51b815260048101879052602d818501527f41413a564b2d456e636c61766520696d61676520746f20766572696679206e6f60448201526c1d081dda1a5d195b1a5cdd1959609a1b6064820152608490fd5b8580fd5b8380fd5b5080fd5b50346101465760208060031936011261046e576004356001600160401b03811161068b576104a4903690600401611acf565b906104ad6124b5565b6030825151148061067d575b8061066e575b1561062057815181830191825191604085019261052683855192604051938491836104f381850198898151938492016119d8565b8301610507825180938780850191016119d8565b0161051a825180938680850191016119d8565b01038084520182611965565b5190209384865285825261053d604087205461182e565b6105db576105ba926105c77f52b29bbdd97ab983419f50fa1590e5ab75e9942279e95e10a08607b06c23238b9593836105a06105d59551875186519060405192610586846118fe565b83528583015260408201528a8c528b845260408c20612253565b5194519251926040519687966060885260608801906119fb565b91868303908701526119fb565b9083820360408501526119fb565b0390a280f35b60405162461bcd60e51b815260048101839052601f60248201527f41413a57492d696d61676520616c72656164792077686974656c6973746564006044820152606490fd5b6084906040519062461bcd60e51b82526004820152602160248201527f41413a57492d5043522076616c756573206d75737420626520343820627974656044820152607360f81b6064820152fd5b506030604083015151146104bf565b5060308183015151146104b9565b8280fd5b5034610146576040366003190112610146576004356001600160401b03811161046e576106c0903690600401611ab4565b602435906106cc6124b5565b818352826020526106e0604084205461182e565b15610796576001600160a01b036106f682612943565b1690818452600160205260408420546107465761071f91845260016020528260408520556128a5565b7f03e7f4efa4ebc44ae1b51254c998967937e762b8ef78a5edd1501a2403f6f3878380a380f35b60405162461bcd60e51b815260206004820152602260248201527f41413a574b2d456e636c617665206b657920616c726561647920766572696669604482015261195960f21b6064820152608490fd5b60405162461bcd60e51b815260206004820152601b60248201527f41413a574b2d496d616765206e6f742077686974656c697374656400000000006044820152606490fd5b5034610146576040366003190112610146576108196004356107fb611803565b90808452600260205261081460016040862001546126b0565b6127bc565b80f35b50346101465780600319360112610146576040517f00000000000000000000000000000000000000000000000000000000000000006001600160a01b03168152602090f35b50346101465760203660031901126101465760406020916004358152600383522054604051908152f35b50610120366003190112610146576004356001600160401b03811161046e573660238201121561046e578060040135906001600160401b0382116110f5578160051b90604051926108df6020840185611965565b8352602460208401928201019036821161103b5760248101925b82841061103f5785856024356001600160401b03811161068b573660238201121561068b57610932903690602481600401359101611a7d565b906044356001600160401b03811161046a57610952903690600401611acf565b6064356001600160401b03811161103b57610971903690600401611ab4565b926101043515610fff576006546040516323b872dd60e01b815233600482015230602482015261010435604482015290602090829060649082908a906001600160a01b03165af18015610ff457610fc5575b506004546000198114610fb1576001018060045585526005602052610a2d6040862092336bffffffffffffffffffffffff60a01b855416178455805190604060208201519101519060405192610a18846118fe565b83526020830152604082015260028401612253565b80516001600160401b038111610f2957610a5781610a4e600586015461182e565b600586016121fd565b6020601f8211600114610f48579080610a85928891610f3d575b508160011b916000199060031b1c19161790565b60058301555b83516001600160401b038111610f2957610ab581610aac600686015461182e565b600686016121fd565b6020601f8211600114610ec0579080610ae2928891610eb557508160011b916000199060031b1c19161790565b60068301555b608435600783015542600883015560a435600983015560c435600a83015560e4353410610e705760e435600b83015561010435600c830155845b8351811015610d8b57610b3581856124a1565b5180516001600160a01b031615610d465760208101516001600160e01b03191615610d015786809160018060a01b03815116908285610bab63ffffffff60e01b60408501511693610b9d60606004549201516040519485936020850198895260248501611b9c565b03601f198101835282611965565b51925af1610bb7611bb8565b5015610cbc576001600160a01b03610bcf82866124a1565b5151166001600160e01b03196020610be784886124a1565b51015116604051918260408101106001600160401b03604085011117610ca85760408301604052825260208201526001840154600160401b811015610c9457806001610c3c9201600187015560018601611b6e565b919091610c8057805182546020909201516001600160c01b03199092166001600160a01b03919091161760409190911c63ffffffff60a01b16179055600101610b22565b634e487b7160e01b88526004889052602488fd5b634e487b7160e01b88526041600452602488fd5b634e487b7160e01b89526041600452602489fd5b60405162461bcd60e51b815260206004820152601f60248201527f56616c69646174696f6e20696e6974616c697a6174696f6e206661696c6564006044820152606490fd5b60405162461bcd60e51b815260206004820152601b60248201527f496e76616c69642076616c69646174696f6e2066756e6374696f6e00000000006044820152606490fd5b60405162461bcd60e51b815260206004820152601a60248201527f496e76616c69642076616c69646174696f6e20616464726573730000000000006044820152606490fd5b50838286610db960045493610dab604051966101008089528801906119fb565b9086820360208801526119fb565b8481036040860152600160208185015492838152019301825260208220915b818110610e3e57505050817fec48fb81ac791e6f7255f085b7625d812f9a6535bb36883428d2e7f9ffbf5ff3602094608435606082015260a435608082015260c43560a082015260e43560c08201526101043560e08201528033940390a3604051908152f35b82546001600160a01b0381168552604090811b6001600160e01b03191660208601529093019260019283019201610dd8565b60405162461bcd60e51b815260206004820152601e60248201527f47617320726566756e6420616d6f756e7420696e73756666696369656e7400006044820152606490fd5b905086015188610a71565b906006840187526020872087925b601f1983168410610f11576001935082601f19811610610ef8575b5050811b016006830155610ae8565b87015160001960f88460031b161c191690558780610ee9565b87810151825560209384019360019092019101610ece565b634e487b7160e01b86526041600452602486fd5b905083015188610a71565b906005840187526020872087925b601f1983168410610f99576001935082601f19811610610f80575b5050811b016005830155610a8b565b84015160001960f88460031b161c191690558780610f71565b84810151825560209384019360019092019101610f56565b634e487b7160e01b86526011600452602486fd5b610fe69060203d602011610fed575b610fde8183611965565b810190611be8565b50856109c3565b503d610fd4565b6040513d88823e3d90fd5b60405162461bcd60e51b8152602060048201526014602482015273125b9d985b1a59081d1bdad95b88185b5bdd5b9d60621b6044820152606490fd5b8480fd5b83356001600160401b0381116103755782016080918260231983360301126110f1576040519283018381106001600160401b03821117610ca85760405260248201356001600160a01b03811681036110ed57835261109f60448301611819565b60208401526110b060648301611819565b60408401526084820135926001600160401b0384116110ed576110dd602094936024869536920101611ab4565b60608201528152019301926108f9565b8880fd5b8780fd5b634e487b7160e01b83526041600452602483fd5b5034610146578060031936011261014657602090604051908152f35b5034610146576080366003190112610146576001600160401b0360243581811161068b57611157903690600401611ab4565b6044356001600160a01b038116810361046a5760643592831161046a57611185610819933690600401611ab4565b91600435611c23565b503461014657806003193601126101465760206040517f00000000000000000000000000000000000000000000000000000000000000008152f35b50346101465760403660031901126101465760ff60406020926111ea611803565b6004358252600285528282206001600160a01b03909116825284522054604051911615158152f35b50346101465760403660031901126101465761123f60209160043581526003835260406024359120611b6e565b905460405160039290921b1c6001600160a01b03168152f35b5034610146576020366003190112610146576112726117e8565b61127a6124b5565b6001600160a01b031680156112c257600680546001600160a01b031916821790557f5ba6b30cd4b2f9e9e67f4feb9b9df10d5da3b057598e6901b217b7d590345e308280a280f35b60405162461bcd60e51b815260206004820152600d60248201526c24b73b30b634b2103a37b5b2b760991b6044820152606490fd5b50346101465780600319360112610146576020600454604051908152f35b50346101465760403660031901126101465761132f611803565b336001600160a01b0382160361134b57610819906004356127bc565b60405162461bcd60e51b815260206004820152602f60248201527f416363657373436f6e74726f6c3a2063616e206f6e6c792072656e6f756e636560448201526e103937b632b9903337b91039b2b63360891b6064820152608490fd5b50346101465760403660031901126101465761141a60043560036113ca611803565b91808552602090600282526113e560016040882001546126b0565b8086526002825260408087206001600160a01b0390951680885294835286205460ff161561141e575b85525260408320612ab5565b5080f35b80865260028252604080872085885283528620805460ff191660011790553384827f2f8788117e7eff1d82e926ec794901d17c78024a50270940304540a733656f0d8980a461140e565b50346101465760203660031901126101465760016040602092600435815260028452200154604051908152f35b5034610146576020366003190112610146576114d860406114ec9260608280516114be816118fe565b828152826020820152015260043581528060205220611986565b604051918291602083526020830190611a20565b0390f35b503461014657602036600319011261014657600435815260056020526040902080546001600160a01b031661152760028301611986565b916040516115438161153c8160058601611868565b0382611965565b6040519161155f836115588160068501611868565b0384611965565b60078101549260088201546009830154906115c1600a850154936115b3600c600b880154970154976115a56040519c8d809d6020610140928392815201528d0190611a20565b908b820360408d01526119fb565b9089820360608b01526119fb565b95608088015260a087015260c086015260e08501526101008401526101208301520390f35b50346101465760208060031936011261046e576001600160a01b036116096117e8565b16825260018152604082205461163e6040516116248161192f565b6009815268034b6b0b3b2a4b21d160bd1b848201526128c5565b6116478161291b565b6116736040516116568161192f565b600c81526b0313cba32b999991418149d160a51b848201526128c5565b61167b6128f3565b80156116f0578252818152611693604083205461182e565b1561169c575080f35b6084906040519062461bcd60e51b82526004820152602760248201527f41413a414f562d536f7572636520696d616765206d7573742062652077686974604482015266195b1a5cdd195960ca1b6064820152fd5b60405162461bcd60e51b815260048101839052602360248201527f41413a414f562d456e636c617665206b6579206d7573742062652076657269666044820152621a595960ea1b6064820152608490fd5b50346101465760203660031901126101465760043563ffffffff60e01b811680910361046e57602090635a05180f60e01b8114908115611787575b506040519015158152f35b637965db0b60e01b8114915081156117a1575b508261177c565b6301ffc9a760e01b1490508261179a565b90503461046e57602036600319011261046e576020916040906001600160a01b036117db6117e8565b1681526001845220548152f35b600435906001600160a01b03821682036117fe57565b600080fd5b602435906001600160a01b03821682036117fe57565b35906001600160e01b0319821682036117fe57565b90600182811c9216801561185e575b602083101461184857565b634e487b7160e01b600052602260045260246000fd5b91607f169161183d565b8054600093926118778261182e565b918282526020936001916001811690816000146118df575060011461189e575b5050505050565b90939495506000929192528360002092846000945b8386106118cb57505050500101903880808080611897565b8054858701830152940193859082016118b3565b60ff19168685015250505090151560051b010191503880808080611897565b606081019081106001600160401b0382111761191957604052565b634e487b7160e01b600052604160045260246000fd5b604081019081106001600160401b0382111761191957604052565b608081019081106001600160401b0382111761191957604052565b90601f801991011681019081106001600160401b0382111761191957604052565b90600260408051611996816118fe565b6119d4819583516119ab8161153c8185611868565b835283516119c08161153c8160018601611868565b602084015261155884518096819301611868565b0152565b60005b8381106119eb5750506000910152565b81810151838201526020016119db565b90602091611a14815180928185528580860191016119d8565b601f01601f1916010190565b611a5f916040611a4e611a3c84516060855260608501906119fb565b602085015184820360208601526119fb565b9201519060408184039101526119fb565b90565b6001600160401b03811161191957601f01601f191660200190565b929192611a8982611a62565b91611a976040519384611965565b8294818452818301116117fe578281602093846000960137010152565b9080601f830112156117fe57816020611a5f93359101611a7d565b91906060838203126117fe5760405190611ae8826118fe565b81938035916001600160401b03928381116117fe5781611b09918401611ab4565b845260208201358381116117fe5781611b23918401611ab4565b602085015260408201359283116117fe57604092611b419201611ab4565b910152565b60405190611b538261192f565b600c82526b032b731b630bb32a5b2bc9d160a51b6020830152565b8054821015611b865760005260206000200190600090565b634e487b7160e01b600052603260045260246000fd5b611a5f93926060928252602082015281604082015201906119fb565b3d15611be3573d90611bc982611a62565b91611bd76040519384611965565b82523d6000602084013e565b606090565b908160209103126117fe575180151581036117fe5790565b91908203918211611c0d57565b634e487b7160e01b600052601160045260246000fd5b9091939293600082815260209360058552604092838320976006611c508a61153c88518094819301611868565b855196611d59611d518a8a019460808652611c83611c7160a08d018a6119fb565b601f198d820381018d8f0152966119fb565b958460608d01528b611cac60018060a01b039d8e8b16998a608083015203888101835282611965565b519020611cd58d6503430b9b41d160d51b8d5191611cc98361192f565b600683528201526128c5565b611cde8161291b565b8a518d8101917f19457468657265756d205369676e6564204d6573736167653a0a3332000000008352603c820152603c8152611d19816118fe565b519020611d438d6603430b9b4191d160cd1b8d5191611d378361192f565b600783528201526128c5565b611d4c8161291b565b612c02565b919091612c3a565b611d6a81611d65611b46565b612842565b8881169081156121b957611d8090611d65611b46565b865260019160018a5287872054611db58951611d9b8161192f565b6009815268034b6b0b3b2a4b21d160bd1b8d8201526128c5565b611dbe8161291b565b611de98951611dcc8161192f565b600c81526b0313cba32b999991418149d160a51b8d8201526128c5565b611df16128f3565b8015612169578752868a52611e088888205461182e565b156121155760018c019087845b611ff2575b5050505050600789019283549360088b01611e36815442611c00565b95868102968188041490151715611fde57899a9b899a602498999a600654168b51998a80926370a0823160e01b82523060048301525afa978815611fd4578998611fa4575b50600c018887825411600014611f9d5750611e97878254611c00565b90555b4290557fb83e4a67d65f51cc4cf00459065d69ff3ed35a7ba7f9062ab631bbe8cb24c8fa60045491548951908152898c82015280611edc33958c8301906119fb565b0390a48215611f9457869282811115611f5b5750600654855163a9059cbb60e01b81526001600160a01b039092166004830152602482019290925294859116818481604481015b03925af1918215611f51575050611f38575050565b81611f4e92903d10610fed57610fde8183611965565b50565b51903d90823e3d90fd5b600654865163a9059cbb60e01b81526001600160a01b039093166004840152602483019190915290958692501681848160448101611f23565b50505050505050565b9055611e9a565b9097508b81813d8311611fcd575b611fbc8183611965565b810103126110ed575196600c611e7b565b503d611fb2565b8a513d8b823e3d90fd5b634e487b7160e01b87526011600452602487fd5b8b89898d8d875486101561210b578380936120548b976120486120248b8e9861201b828b611b6e565b50541698611b6e565b5063ffffffff60e01b9054871b16955193849283019687528b60249b8c8501611b9c565b038a8101835282611965565b51925af1612060611bb8565b90156120c857808e8061207893518301019101611be8565b156120865750840184611e15565b8c60176064928d519262461bcd60e51b845260048401528201527f56616c69646174696f6e20636865636b206661696c65640000000000000000006044820152fd5b8b5162461bcd60e51b8152600481018f90526018818401527f56616c69646174696f6e2063616c6c20726576657274656400000000000000006044820152606490fd5b5050505050611e1a565b875162461bcd60e51b8152600481018b9052602760248201527f41413a414f562d536f7572636520696d616765206d7573742062652077686974604482015266195b1a5cdd195960ca1b6064820152608490fd5b885162461bcd60e51b8152600481018c9052602360248201527f41413a414f562d456e636c617665206b6579206d7573742062652076657269666044820152621a595960ea1b6064820152608490fd5b885162461bcd60e51b8152600481018c9052601960248201527f496e76616c696420656e636c617665207369676e6174757265000000000000006044820152606490fd5b90601f811161220b57505050565b6000916000526020600020906020601f850160051c83019410612249575b601f0160051c01915b82811061223e57505050565b818155600101612232565b9092508290612229565b815180516001600160401b03918282116119195761227b82612275865461182e565b866121fd565b602090601f831160011461243a576122ac929160009183612361575b50508160011b916000199060031b1c19161790565b82555b6001918281016020850151805190848211611919576122d8826122d2855461182e565b856121fd565b602090601f83116001146123cc5782604095936002959361230f936000926123615750508160011b916000199060031b1c19161790565b90555b0193015180519182116119195761232d82612275865461182e565b602092601f831160011461236c575061235d92600091836123615750508160011b916000199060031b1c19161790565b9055565b015190503880612297565b92601f198316918560005283826000209360005b878282106123b35750501061239a575b505050811b019055565b015160001960f88460031b161c19169055388080612390565b8486015187559095019460209485019487935001612380565b869291601f1983169185600052816000209260005b81811061242257509160409795939185600298969410612409575b505050811b019055612312565b015160001960f88460031b161c191690553880806123fc565b8284015185558a9690940193602093840193016123e1565b90601f1983169185600052816000209260005b8181106124895750908460019594939210612470575b505050811b0182556122af565b015160001960f88460031b161c19169055388080612463565b9293602060018192878601518155019501930161244d565b8051821015611b865760209160051b010190565b3360009081527fac33ff75c19e70fe83507db0d683fd3465c996598dc972688b7ace676c89077b602090815260408083205490929060ff16156124f757505050565b612500336129b6565b908084519061250e8261194a565b6042825284820192606036853782511561269c57603084538251906001916001101561269c5790607860218501536041915b81831161262e575050506125ec5760486125e89386936125cc936125bd985198899376020b1b1b2b9b9a1b7b73a3937b61d1030b1b1b7bab73a1604d1b8a860152612594815180928c6037890191016119d8565b8401917001034b99036b4b9b9b4b733903937b6329607d1b6037840152518093868401906119d8565b01036028810187520185611965565b5192839262461bcd60e51b8452600484015260248301906119fb565b0390fd5b60648486519062461bcd60e51b825280600483015260248201527f537472696e67733a20686578206c656e67746820696e73756666696369656e746044820152fd5b909192600f81166010811015612688576f181899199a1a9b1b9c1cb0b131b232b360811b901a61265e85876129a5565b5360041c92801561267457600019019190612540565b634e487b7160e01b82526011600452602482fd5b634e487b7160e01b83526032600452602483fd5b634e487b7160e01b81526032600452602490fd5b60009080825260209060028252604092838120338252835260ff8482205416156126da5750505050565b6126e3336129b6565b918451906126f08261194a565b6042825284820192606036853782511561269c57603084538251906001916001101561269c5790607860218501536041915b818311612776575050506125ec5760486125e89386936125cc936125bd985198899376020b1b1b2b9b9a1b7b73a3937b61d1030b1b1b7bab73a1604d1b8a860152612594815180928c6037890191016119d8565b909192600f81166010811015612688576f181899199a1a9b1b9c1cb0b131b232b360811b901a6127a685876129a5565b5360041c92801561267457600019019190612722565b906040611f4e9260009080825260026020528282209360018060a01b03169384835260205260ff83832054166127fa575b8152600360205220612b26565b808252600260205282822084835260205282822060ff1981541690553384827ff6391f5c32d9c69d2a47ea670b442974b53935d1edc7fd64eb21e047a839171b8580a46127ed565b6000919082916128926040518092612873602083019563319af33360e01b87526040602485015260648401906119fb565b6001600160a01b0391909116604483015203601f198101835282611965565b51906a636f6e736f6c652e6c6f675afa50565b6128bd906020604051928284809451938492016119d8565b810103902090565b6000809160405161289281610b9d602082019463104c13eb60e21b86526020602484015260448301906119fb565b60008060405160208101906327b7cf8560e01b825282602482015260248152612892816118fe565b6000809160405160208101916327b7cf8560e01b8352602482015260248152612892816118fe565b60408151036129605780516020909101206001600160a01b031690565b60405162461bcd60e51b815260206004820152601960248201527f496e76616c6964207075626c6963206b6579206c656e677468000000000000006044820152606490fd5b908151811015611b86570160200190565b604051906129c3826118fe565b602a8252602082016040368237825115611b865760309053815160019060011015611b8657607860218401536029905b808211612a47575050612a035790565b606460405162461bcd60e51b815260206004820152602060248201527f537472696e67733a20686578206c656e67746820696e73756666696369656e746044820152fd5b9091600f81166010811015612aa0576f181899199a1a9b1b9c1cb0b131b232b360811b901a612a7684866129a5565b5360041c918015612a8b5760001901906129f3565b60246000634e487b7160e01b81526011600452fd5b60246000634e487b7160e01b81526032600452fd5b91906001830160009082825280602052604082205415600014612b2057845494600160401b8610156110f55783612b10612af9886001604098999a01855584611b6e565b819391549060031b91821b91600019901b19161790565b9055549382526020522055600190565b50925050565b90600182019060009281845282602052604084205490811515600014612bfb5760001991808301818111611fde57825490848201918211612be757808203612bb2575b50505080548015612b9e57820191612b818383611b6e565b909182549160031b1b191690555582526020526040812055600190565b634e487b7160e01b86526031600452602486fd5b612bd2612bc2612af99386611b6e565b90549060031b1c92839286611b6e565b90558652846020526040862055388080612b69565b634e487b7160e01b88526011600452602488fd5b5050505090565b906041815114600014612c3057612c2c916020820151906060604084015193015160001a90612d54565b9091565b5050600090600290565b6005811015612d3e5780612c4b5750565b60018103612c985760405162461bcd60e51b815260206004820152601860248201527f45434453413a20696e76616c6964207369676e617475726500000000000000006044820152606490fd5b60028103612ce55760405162461bcd60e51b815260206004820152601f60248201527f45434453413a20696e76616c6964207369676e6174757265206c656e677468006044820152606490fd5b600314612cee57565b60405162461bcd60e51b815260206004820152602260248201527f45434453413a20696e76616c6964207369676e6174757265202773272076616c604482015261756560f01b6064820152608490fd5b634e487b7160e01b600052602160045260246000fd5b9291907f7fffffffffffffffffffffffffffffff5d576e7357a4501ddfe92f46681b20a08311612dd75791608094939160ff602094604051948552168484015260408301526060820152600093849182805260015afa15612dca5781516001600160a01b03811615612dc4579190565b50600190565b50604051903d90823e3d90fd5b5050505060009060039056fea26469706673582212201d6ecdfb71169b3f20f942afed906e532c451606f8abb3a6fa2418821bf0c1da64736f6c6343000818003352b29bbdd97ab983419f50fa1590e5ab75e9942279e95e10a08607b06c23238bac33ff75c19e70fe83507db0d683fd3465c996598dc972688b7ace676c89077b3617319a054d772f909f7c479a2cebe5066e836a939412e32403c99029b92eff",
    "linkReferences": {}
  },
  "methodIdentifiers": {
    "ATTESTATION_MAX_AGE()": "9aec990e",
    "ATTESTATION_VERIFIER()": "cd79f906",
    "DEFAULT_ADMIN_ROLE()": "a217fddf",
    "createJob((address,bytes4,bytes4,bytes)[],string,(bytes,bytes,bytes),bytes,uint256,uint256,uint256,uint256,uint256)": "a7b39a15",
    "executeJob(uint256,bytes,address,bytes)": "a0ab4f2f",
    "getRoleAdmin(bytes32)": "248a9ca3",
    "getRoleMember(bytes32,uint256)": "9010d07c",
    "getRoleMemberCount(bytes32)": "ca15c873",
    "getVerifiedKey(address)": "01d58fa3",
    "getWhitelistedImage(bytes32)": "2410f6ba",
    "grantRole(bytes32,address)": "2f2ff15d",
    "hasRole(bytes32,address)": "91d14854",
    "isEnclaveKeyValid(address)": "122748ab",
    "jobCount()": "4c5d8a0f",
    "jobs(uint256)": "180aedf3",
    "renounceRole(bytes32,address)": "36568abe",
    "revokeRole(bytes32,address)": "d547741f",
    "supportsInterface(bytes4)": "01ffc9a7",
    "token()": "fc0c546a",
    "updateToken(address)": "7ad3def2",
    "verifyKey(bytes,bytes,bytes32,uint256,uint256,uint256)": "fb94db2b",
    "whitelistEnclaveImage((bytes,bytes,bytes))": "dec8e4dd",
    "whitelistEnclaveKey(bytes,bytes32)": "debf726b"
  },
  "id": 36
}